:0C0000000C9443010C9400000C940000D0
:10000C000C9400000C9400000C9400000C94000064
:10001C000C9400000C9400000C9400000C94000054
:10002C000C9400000C9400000C9400000C94000044
:10003C000C9400000C9400000C9400000C94000034
:10004C000C9400000C9400000C9400000C94000024
:10005C000C9400000C9400000C9400000C94000014
:10006C000C9400000C9400000C9400000C94000004
:10007C000C9400000C9400000C9400000C940000F4
:10008C000C9400000C9400000C9400000C940000E4
:10009C000C9400000C9400000C9400000C940000D4
:1000AC000C9400000C9400000C9400000C940000C4
:1000BC000C9400000C9400000C9400000C940000B4
:1000CC000C9400000C9400000C9400000C940000A4
:1000DC000C9400000C9400004A0104004A01040036
:1000EC005D01040088010400880104005D01040026
:1000FC004A01040026010400060104000601040064
:10010C00260104004A0104004A01FCFF26010800F4
:10011C00260102004A0104004A0104005D010400AA
:10012C0088010400880104005D0104004A010400F8
:10013C002601040006010400060104002601040047
:10014C004A0104002601FCFF06010800060102001A
:10015C0026010400260104004A01040006010400E3
:10016C00260104004A0108005D0108004A01040050
:10017C0006010400260104004A0108005D01080084
:10018C004A010400260104000601040026010400B3
:10019C00C40002004A0104004A0104005D0104008D
:1001AC0088010400880104005D0104004A01040078
:1001BC0026010400060104000601040026010400C7
:1001CC004A0104002601FCFF06010800060102009A
:1001DC00EE011000DC031000E40210006E021000AF
:1001EC00DC032000E402F0FF6E0208000B0210009A
:1001FC00170410002006100027051000170420001B
:10020C002006F0FF27050800EE011000DC031000AB
:10021C00E40210006E021000DC032000E402F0FF88
:10022C006E0208006E02200093022000BA02200029
:10023C00BA022000E402200010032000100320006A
:10024C003F03200070031000DC0308003E001F0079
:10025C003908EE08F700000AE4007B00F80ADC011C
:10026C000100740B58020100760B5A020200780B45
:10027C005C0202007A0B5E020000F894EE27EFBBE2
:10028C00F1E0F5BFE5BFE0937400E09375008DE0FD
:10029C00A2E0BB27ED938A95E9F780E090E2A0E01D
:1002AC00B2E0ED930197E9F7E0E6F2E085919591E4
:1002BC00009761F0A591B59105901590BF01F001E3
:1002CC0005900D920197E1F7FB01F0CF8BBF8CBF2E
:1002DC00E0E0EEBBEFEFEDBFE1E2EEBFC0E0DAE055
:1002EC000C94C0010E94800424971A930A93259AB7
:1002FC00EE81FF8168857985A0E0B4E284EF98E413
:10030C000E94D303EA83FB836C837D830E94C70224
:10031C008F01AA81BB818C819D81662777270E94E2
:10032C0000030E9485040E943303DF01CB01E0E04F
:10033C00F0E060E07FE30E94180410F00F5F1F4FA5
:10034C00E0E4E0938000E9E0E0938100F80131976C
:10035C00EF2FF0E0E0938900E02FE150E09388006C
:10036C00198108812A960895E0E0E0938000E093DB
:10037C0081000895E0E8E0936100E4E0E09361001F
:10038C00409A419A30992AC000E010E0E091740B39
:10039C00F091750BEE0FFF1F0E171F07F8F4319B32
:1003AC001DC0D801AA0FBB1FAE5FB54F45D01CF4C2
:1003BC0050D054D008C0A0917D0BAA2322F459D060
:1003CC004DD061D069D0F801A0E0BAE072D07FD0F6
:1003DC008BD0319B03C00E5F1F4FD8CF31992AC0F1
:1003EC0000E010E0E091760BF091770BEE0FFF1F21
:1003FC000E171F07F8F4309B1DC0D801AA0FBB1FA6
:10040C00A650B54F19D01CF424D079D008C0A091B7
:10041C007D0BAA2322F42DD072D035D03DD0F8011B
:10042C00A8EFBAE046D053D05FD0309B03C00E5F2C
:10043C001F4FD8CFA7CFFFCF0E947C04E0937C0B3B
:10044C00F0937D0BA0917C0BB0917D0B0E949204DC
:10045C000895E0917C0BF0917D0B0895A091780BA1
:10046C00B091790B0E946904E0937E0BF0937F0BA3
:10047C000895EFDFAFEFBFEF0E945104E0937C0BC8
:10048C00F0937D0BE6CFE0917E0BF0917F0B0E94F9
:10049C0044040E9400030895A0E0B0E080EC9FE3C8
:1004AC000E948503AEE7BBE00E94C902ED93FC936A
:1004BC000895EE0FFF1FAE0FBF1F0E947C040E9419
:1004CC0044040E940003DF01CB010CDFDCCFA6E665
:1004DC00B6E686E69FE30E9485030E94C702DF0111
:1004EC000E94900241DFCFCFADECBCEC8CEC9DE3D5
:1004FC000E9485030E94C702DF010C949002A09118
:10050C007A0BB0917B0B0E946904E0937E0BF09305
:10051C007F0B0895109639F08AEF90E00197F1F770
:10052C00A8951197C9F70895552342F4503811F442
:10053C00E0FF04C03196691F791F6BF050E8572714
:10054C0011F45F93CAC05F3F31F0660F000C5795F2
:10055C006795752F08955F9300200AF0CAC0C3C039
:10056C0050E8192E1522880F991F9527550F87953E
:10057C0050E8072E0522660F771F7527550F6795D4
:10058C000895689401C0E8945F93F2DF703818F016
:10059C007F3F08F4A2C056E1571BAAF4519558307E
:1005AC000EF4593030F0EFEFFFEF6FEF7FE777F994
:1005BC001AC077275523B9F0EE0FFF1F661F771F60
:1005CC005A95D1F710C07727583028F0EF2FF62F17
:1005DC00672F5850F9CF552331F076956795F795DD
:1005EC00E7955A95D1F700200AF440D15F91089510
:1005FC00689401C0E894309760407040B1F00024DA
:10060C0026F0772312F4009431D1172E7EE11120BD
:10061C0032F07A95EE0FFF1F661F111CF9CFEF2FEA
:10062C00F62F612D5F938ADF5F9108954F93AF0191
:10063C00FD01DA01AB01BC01CA01402D012C142EC5
:10064C004F910895EA0FFB1F681F0895E095F095F0
:10065C006095EF5FFF4F6F4F08955F9381DF903888
:10066C0049F150E81526703821F1572F591B2BF101
:10067C0012F4DCDFFACF583118F0AA27BB278827F1
:10068C00583028F0AB2FB82F88275850F9CF552366
:10069C0029F08695B795A7955A95D9F7502D5125E0
:1006AC0072F0D0DF38F46795F795E795739513F4EE
:1006BC0020C0BCDF43DF5F910895D8F7FBCFEA1B66
:1006CC00FB0B680B51F010F40094C0DF662392F31F
:1006DC00EE0FFF1F661F7A95CBF7EE27FF276627D5
:1006EC0077275F910895EFEFFFEF6FE77FEF5F9153
:1006FC000895EFEFFFEF6FE77FE75F9108955F934A
:10070C002FDF703851F3903841F301240894791F8E
:10071C0023F41CF300203AF3ECCF0F921F932F938A
:10072C003F934F93112722279927689FA0018F9FF2
:10073C00302D410D591F6B9F300D411D591F8E9F40
:10074C0027D0BF9F25D06A9F23D0BE9F1DD0AF9FBF
:10075C001BD0AE9F110D291F391F491F591FE32FA5
:10076C00F42F652F522F4F913F912F911F910F9086
:10077C0066232AF0550FEE1FFF1F661F02C07395EC
:10078C004BF2D2DE5F910895100D211D391F02C06E
:10079C00200D311D491F591F08955F93E1DE7038FC
:1007AC0021F411200AF49FCFA4CF903809F495CFEF
:1007BC0001240894970B1BF4D4F30020F3CF792F6A
:1007CC001F932F933F934F931124112722273327E5
:1007DC004427552790E2AE17BF078607410730F034
:1007EC00AE1BBF0B860B410B089401C08894551FA0
:1007FC00221F331F111CAA1FBB1F881F441F9A9551
:10080C0051F7F901612D4F913F912F911F91662363
:10081C0032F0550FEE1FFF1F661F7A9543F284DEF0
:10082C005F91089599239AF0772342F0971748F037
:10083C0029F4AE17BF07860720F031F098948894FE
:10084C00089598940894089518948894089577239B
:10085C00C2F7971798F3A9F7EA17FB07680788F30D
:10086C0099F3ECCFF195E195F0400895F0956095F2
:10087C007095E195FF4F6F4F7F4F08956F2F660F67
:10088C00660B762F0895FA9FF02DEB9FF00DEA9FE3
:10089C00E02DF10D08951CD0F6DF0EF4E3DF089582
:1008AC000024112490E1AA0FBB1F001C111C0E1A6E
:1008BC001F0A18F40E0E1F1E01C0A1609A9599F71D
:1008CC00FD01D001089504D0EBDF0EF4CBDF0895C9
:1008DC00E894F7FF02C0C6DF6894B7FF06C0A09586
:1008EC00B095119600F8039400FA0895ED91FC91DF
:1008FC00119708959A938A93BA93AA930895182EF0
:10090C00862F612D192E972F712D1B2EBF2FF12D98
:10091C001A2EAE2FE12D089500240A160B06089509
:00000001FF
