:020000000C945E
:1000020089000C9400000C9400000C9400000C94E5
:1000120000000C9400000C9400000C9400000C945E
:1000220000000C9400000C9400000C9400000C944E
:1000320000000C9400000C9400000C9400000C943E
:1000420000000C9400000C9400000C9400000C942E
:1000520000000C9400000C9400000C9400000C941E
:1000620000000C9400000C9400000C9400000C940E
:1000720000000C9400000C9400000C9400000C94FE
:1000820000000C9400000C9400000C9400000C94EE
:1000920000000C9400000C9400000C9400000C94DE
:1000A20000000C9400000C9400000C9400000C94CE
:1000B20000000C9400000C9400000C9400000C94BE
:1000C20000000C9400000C9400000C9400000C94AE
:1000D20000000C9400000C9400000C9400000C949E
:1000E20000001027E80364000A000100001000016C
:1000F2001000010003030302020C000800010006C5
:10010200253032693A253032693A253032690000A9
:10011200F894EE27EFBBF1E0F5BFE5BFE093740082
:10012200E09375008DE0A2E0BB27ED938A95E9F795
:1001320080E090E2A0E0B2E0ED930197E9F78BBF97
:100142008CBFE0E0EEBBEFEFEDBFE1E2EEBFC0E05F
:10015200D6E00C9445012C978CE0A0E0B0E0E6EFED
:10016200F0E00E9422040A93099A089A0A9A0B9ACA
:100172000C9A0D9AA2E3B0E00E94EF0300E00C306B
:1001820068F40E94A803E02FF0E0DE011196AE0FA2
:10019200BF1FAC910E94AC030F5FF1CFECE0E09384
:1001A2000006A091000621D008812D960895119A8B
:1001B20011980895AA93E881E87011F0159A01C088
:1001C2001598E881E47011F0149A01C01498E8813E
:1001D200E27011F0139A01C01398E881E17011F0F6
:1001E200129A01C0129821960895AA930A93109820
:1001F2000E94A8030E94B0030E94B703D8DF0881BF
:1002020041C0AA930A93109A0E94A8030E94B003C5
:100212000E94B703CCDF088135C0BA93AA930A9330
:1002220000E0E02F0F5FA981BA81F0E0AE0FBF1F9F
:10023200AC91E7DFA981BA81EE27A00FBE1FEC9136
:10024200E03079F7088123960895AA93E881F0E0D7
:10025200309719F4A981A05814C0E130A0E0FA0740
:1002620019F4A981A0540DC0E230A0E0FA0719F4F4
:10027200A981AC5606C0E330A0E0FA0719F4A981BF
:10028200AC52B3DF22960895E0E8E0936100E4E027
:10029200E0936100EFE1E8B90E94AC00E0E0E09396
:1002A2008000EAE0E0938100EAE7E0938900E1E17F
:1002B200E0938800E5E0F6E0FA93EA93E2E0F1E009
:1002C200FA93EA93E09102060E94BE03E0910306CC
:1002D2000E94BE03E09104060E94BE038CE0EAD1B4
:1002E2006096E4E0EA93A0E0B0DFA5E0B6E095DF37
:1002F200B19BFECFB19AE0910106EF5FE093010658
:10030200A0910106A43039F5E0E0E0930106E09106
:100312000406EF5FE0930406A0910406AC33D9F41F
:10032200E0E0E0930406E0910306EF5FE09303064A
:10033200A0910306AC3379F4E0E0E0930306E09188
:100342000206EF5FE0930206A0910206A83119F4BB
:10035200E0E0E093020634990BC0A0910206A731B7
:1003620011F4E0E003C0E0910206EF5FE0930206C1
:1003720033990BC0E0910206E03011F4E7E103C0CB
:10038200E0910206E150E093020632990BC0A0917F
:100392000306AB3311F4E0E003C0E0910306EF5F24
:1003A200E093030631990BC0E0910306E03011F4AB
:1003B200EBE303C0E0910306E150E09303063099BA
:1003C20003C0E0E0E093040675CFFFCFBA93AA938F
:1003D2001A930A93AA81BB8112960E94070430974E
:1003E20059F1AA81BB8114960E9407048F013097AC
:1003F20061F00230E0E01E0798F0F80131978F01BA
:10040200AA81BB811496ED93FC93AA81BB811296BB
:10041200ED91FD913196FE93EE933197AC81A083DD
:10042200AA81BB810E940704FF232AF0ED91FD916E
:100432003196FE93EE9306C0AA81BB81EFEFFFEFE8
:10044200ED93FC931981088125960895BA93AA9396
:1004520026970E94140400E0AC85BD85E0E0F0E040
:10046200ED93FC93EA89FB893196EA8BFB8B3197FA
:10047200E4913E2FE03009F415C1E02FE03039F469
:10048200353211F401E002C00E94C3030AC1E13017
:10049200A9F4353219F40E94C30302C102E050E00C
:1004A20010E03D3211F411E0FCC03B3211F45BE28A
:1004B200F8C0303211F450E2F4C002C0E23039F434
:1004C20040E003E0303311F41068EBC003C0E330C6
:1004D20009F0E7C0303310F03A3308F007C0AAE061
:1004E2004A9F402DE32FE0534E0FDBC0E32FE3364C
:1004F20049F40E94CA03E889F989A481AA930E9457
:10050200D003CEC0E33741F40E94CA030E94D6034F
:100512000E948F030E2F0AC0E03761F40E94CA03C3
:100522000E94D6030E949B030E2F186012601F7751
:1005320020E034C0E43611F0E93611F4146002C050
:10054200E53731F4E4EEF0E0EE83FF8305E00CC022
:10055200E83511F4186003C0E83709F0A1C0EEEEE7
:10056200F0E0EE83FF8304E012FF14C00E94CA038E
:100572000E94E003AB85AA233AF4EA85FB850E9438
:10058200FD03EA87FB875DE2503011F00F5F01C087
:100592001B7F04C00E94CA030E94E00310FD11C029
:1005A200041778F417FF08C012FF04C01B7F352F11
:1005B200015001C030E301C030E20E94C303415048
:1005C200EFCF202F11FF17C02030A1F013FF06C07C
:1005D200EE81FF813591EE83FF8305C0AE81BF813D
:1005E2003D91AE83BF830E94C303403009F0415066
:1005F2002150EACF4BC030E3EE81FF810E940B0411
:10060200E887F987EE81FF813296EE83FF83E885E2
:10061200F985AA85BB85AE17BF0750F03F5FA88555
:10062200B985EA85FB85EA1BFB0BEA87FB87EFCFDF
:100632003A3328F013FF02C0395F01C0395D14FD5F
:100642001AC0313320F4A885B985119709F409C07D
:10065200421710F010FF01C013C030E217FF0BC0A9
:1006620030E3106112FF07C01B7F5A930E94D00330
:10067200403009F041500E94C303403009F041501C
:100682002150A885B985129708F0B5CF10FF08C090
:10069200403031F04150E0E2EA930E94D003F8CFBB
:1006A20000E0E0CEAC85BD850E9407040E941B04D9
:1006B20064960895FF92F82E26970E9416040E94CF
:1006C200E803309719F4EFEFFFEF23C0DE0116962F
:1006D2000E94F9038D010E94E803EE83FF83E0E0AC
:1006E200E887E987DE011A960E94F9030E9407044F
:1006F200FA93EA931A930A93E7EEF1E0FA93EA93F4
:10070200DE011A96A3DE9F01AE81BF81E0E0EC9389
:10071200F9010E941D042A96FF900895BA93AA93A4
:10072200A991B991EE27FF276D91662311F03196B9
:10073200FBCF0895BA93AA93AA27BB27E991F9910F
:100742000590002011F01196FBCFFD010895A2E063
:10075200B0E00C94EF030E94DB000C94D800E98116
:10076200E07F0E2F02950F70A02FF5CFE981EF7079
:100772000E2FA02F0E94DB00EACF0E9401040E94EC
:100782000F0408953A93AD85BE85EF85F8890995E2
:100792000895E889F9893497E88BF98B0895AD8536
:1007A200BE85EF85F88909950895A889B9891496B7
:1007B2000E940704EE83FF83AE81BF810895A8895A
:1007C200B98914960E940704EA87FB870895DE011F
:1007D2001C960E94F9030E9407040895109639F0AE
:1007E2008AEF90E00197F1F7A8951197C9F708955C
:1007F2000024AF0DB01D0895F195E195F0400895E4
:10080200FE2FFF0FFF0B6F2F7F2F0895ED91FC91AD
:10081200119708950590F491E02D08957A936A93C3
:10082200FA93EA9308955A934A933A932A931A931E
:100832000A9308955D814C813B812A811981088147
:100842000895AC0FBD1F05900D928A95E1F70895AA
:00000001FF
