:060000000C9491000C9429
:1000060000000C9400000C9400000C9400000C946A
:1000160000000C9400000C9400000C9400000C945A
:1000260000000C9400000C9400000C9400000C944A
:1000360000000C9400000C9400000C9400000C943A
:1000460000000C9400000C9400000C9400000C942A
:1000560000000C9400000C9400000C9400000C941A
:1000660000000C9400000C9400000C9400000C940A
:1000760000000C9400000C9400000C9400000C94FA
:1000860000000C9400000C9400000C9400000C94EA
:1000960000000C9400000C9400000C9400000C94DA
:1000A60000000C9400000C9400000C9400000C94CA
:1000B60000000C9400000C9400000C9400000C94BA
:1000C60000000C9400000C9400000C9400000C94AA
:1000D60000000C9400000C9400000C940000102703
:1000E600E80364000A00010000100001100001008E
:1000F60003030302020C000800010006E00320507F
:10010600656F706C6520436F756E7465722000258F
:10011600303369000200010A02010000F894EE275C
:10012600EFBBF1E0F5BFE5BFE0937400E093750027
:100136008DE0A2E0BB27ED938A95E9F780E090E297
:10014600A0E0B2E0ED930197E9F7EAE1F1E08591ED
:100156009591009761F0A591B59105901590BF0115
:10016600F00105900D920197E1F7FB01F0CF8BBFEF
:100176008CBFE0E0EEBBEFEFEDBFE1E2EEBFC0E02B
:10018600DAE00C946B012C978CE060E070E0E6EF0F
:10019600F0E0DBD20A93099A089A0A9A0B9A0C9A0B
:1001A6000D9AA2E3B0E0FAD200E00C3070F4A2E0BF
:1001B600B0E0F4D2E02FF0E0DE011196AE0FBF1FE3
:1001C600AC910FD00BD00F5FF0CFECE0E093000ABC
:1001D600A091000A1ED008812D960895119A1198B3
:1001E60008950A930A2F03FF02C0159A01C01598B5
:1001F60002FF02C0149A01C0149801FF02C0139AAC
:1002060001C0139800FF02C0129A01C0129809910A
:1002160008951A930A931A2F109804C01A930A93F2
:100226001A2F109AA2E0B0E0B9D2E12FE07F0E2F8C
:1002360002950F70A02FD5DFD1DFE12FEF700E2FC3
:10024600A02FCFDFA2E0B0E0A9D2C8DF09911991B3
:1002560008951CD220D2A491E1DFE02FF0E0E10F57
:10026600F21FE491E030B1F76CD230C00FD213D256
:10027600A081D4DFA12FB22FEE27A00FBE1FEC91D5
:10028600E030A9F75ED222C01A930A930A2F1A8188
:10029600E02FF0E0309719F4A12FA05814C0E130F8
:1002A600A0E0FA0719F4A12FA0540DC0E230A0E097
:1002B600FA0719F4A12FAC5606C0E330A0E0FA07FE
:1002C60019F4A12FAC52A5DF198108812396089550
:1002D600E7E0E8B958DFE0E0EA93A0E0D5DFA4E084
:1002E600B1E0B7DFDED1309912C0F4D1A73EE3E02A
:1002F600BE0768F4F4D13196FE93EE93D2D1AEE107
:10030600B0E04CD2309BFECFAAE0B0E047D23199A4
:1003160010C0E0D13FD268F4E2D13197FE93EE935C
:10032600C0D1AEE1B0E03AD2319BFECFAAE0B0E058
:1003360035D232990EC0E0E0E093010AE093020A5A
:10034600B0D1AEE1B0E02AD2329BFECFAAE0B0E057
:1003560025D2C9CFFFCFECD19D014D8112960DD28A
:100366003097E1F0D901149608D28F01309759F0F1
:100376000230E0E01E0760F0F80131978F01D901E5
:100386001496ED93FC93D9011296AED13197408322
:10039600D901F3D1FF230AF0A7D105C0D901EFEFA8
:1003A600FFEFED93FC93CBD126960895BA93AA93CB
:1003B6002697BDD100E0AC85BD85E0E0F0E0ED9389
:1003C600FC93EA89FB893196EA8BFB8B3197E491A2
:1003D6003E2FE03009F409C1E02FE03031F4353228
:1003E60011F401E001C086D1FFC0E130A1F435323D
:1003F60011F480D1F8C002E050E010E03D3211F473
:1004060011E0F2C03B3211F45BE2EEC0303211F47F
:1004160050E2EAC002C0E23039F440E003E0303393
:1004260011F41068E1C003C0E33009F0DDC03033D9
:1004360010F03A3308F007C0AAE04A9F402DE32F98
:10044600E0534E0FD1C0E32FE33639F45AD1E88991
:10045600F989A481AA935BD1C6C0E33729F451D1A7
:100466005CD1FBD00E2F07C0E03749F44AD155D1F5
:1004760000D10E2F186012601F7720E038C0E436D6
:1004860011F0E93611F4146002C0E53731F4E4EEF8
:10049600F0E0EE83FF8305E00CC0E83511F4186048
:1004A60003C0E83709F09FC0EEEEF0E0EE83FF836D
:1004B60004E012FF15C025D1A889B9891496ED91DB
:1004C600FD91EA87FB87AB85AA2322F452D1EA87FE
:1004D600FB875DE2503011F00F5F01C01B7F07C044
:1004E60010D1A889B989149648D1EA87FB8710FDEF
:1004F60010C0041770F417FF08C012FF04C01B7F5A
:10050600352F015001C030E301C030E2F3D0415035
:10051600F0CF202F11FF16C0203099F013FF06C030
:10052600EE81FF813591EE83FF8305C0AE81BF81E9
:100536003D91AE83BF83DED0403009F0415021505B
:10054600EBCF48C030E3EE81FF811BD1E887F98706
:10055600EE81FF813296EE83FF83E885F985AA85D1
:10056600BB85AE17BF0750F03F5FA885B985EA8502
:10057600FB85EA1BFB0BEA87FB87EFCF3A3328F0B4
:1005860013FF02C0395F01C0395D14FD19C0313354
:1005960020F4A885B985119709F409C0421710F00F
:1005A60010FF01C011C030E217FF0AC030E310612E
:1005B60012FF06C01B7F5A93AAD0403009F0415063
:1005C60099D0403009F041502150A885B98512973D
:1005D60008F0B8CF10FF07C0403029F04150E0E2E4
:1005E600EA9395D0F9CF00E0ECCEAC85BD85ED91D0
:1005F600FD91A4D064960895FF92F82E269797D081
:10060600FE01AFD046855785042E052A19F4EFEF73
:10061600FFEF1FC0DE011896A8D08D0148875987C5
:10062600E0E0EA87EB87DE011C969FD0ED91FD9115
:10063600FA93EA931A930A93EEEAF1E0FA93EA93AD
:10064600DE011C96B3DE9F01A885B985E0E0EC9338
:10065600F90174D02C96FF900895BA93AA93A991A4
:10066600B991EE27FF276D91662311F03196FBCFE6
:100676000895BA93AA93AA27BB27E991F991059001
:10068600002011F01196FBCFFD01089553D01A2FCB
:100696002B2F00E00895E02F0F5FF0E0E10FF21F2F
:1006A6000895E3E0FAE0FA93EA93E5E1F1E0FA93DC
:1006B600EA93E091010AF091020A6627772765D04E
:1006C60084E09ADF2896E7E0EA93A1E0DDDDA3E087
:1006D600BAE0CCCDA091010AB091020A0895A1E03A
:1006E600BAE0ED91FD910895ED91FD913196FE935D
:1006F600EE9308953A93AD85BE85EF85F889099501
:100706000895E889F9893497E88BF98B0895AD85C2
:10071600BE85EF85F88909950895A889B989149643
:10072600ED91FD91EE83FF83AE81BF8108955A93CB
:100736004A933A932A931A930A9308955D814C81BA
:100746003B812A81198108810895AF93BF93DB010C
:10075600AC0FBD1F05900D928A95E1F7BF91AF9141
:1007660008950024EF0DF01D08950024AF0DB01D6F
:100776000895F195E195F0400895ED91FC9111975A
:1007860008950590F491E02D08957A936A93FA936B
:10079600EA93089500240A160B060895109639F078
:1007A600A89580EA9FE00197F1F71197C9F7089598
:00000001FF
