:060000000C94A7000C9413
:1000060000000C9400000C9400000C9400000C946A
:1000160000000C9400000C9400000C9400000C945A
:1000260000000C9400000C9400000C9400000C944A
:1000360000000C9400000C9400000C9400000C943A
:1000460000000C9400000C9400000C9400000C942A
:1000560000000C9400000C9400000C9400000C941A
:1000660000000C9400000C9400000C9400000C940A
:1000760000000C9400000C9400000C9400000C94FA
:1000860000000C9400000C9400000C9400000C94EA
:1000960000000C9400000C9400000C9400000C94DA
:1000A60000000C9400000C9400000C9400000C94CA
:1000B60000000C9400000C9400000C9400000C94BA
:1000C60000000C9400000C9400000C9400000C94AA
:1000D60000000C9400000C9400000C940000102703
:1000E600E80364000A00010000100001100001008E
:1000F60003030302020C0008000100060E1D1E1C6D
:100106001E1F0E000E1D1F1E1F1F0E000E170F07AF
:100116000F1F0E000E171F0F1F1F0E0048656C6C79
:100126006F004D722E205061634D616E0000070016
:1001360001060201070009060A010700110612015D
:10014600070019061A010000F894EE27EFBBF1E04C
:10015600F5BFE5BFE0937400E09375008DE0A2E083
:10016600BB27ED938A95E9F780E090E2A0E0B2E044
:10017600ED930197E9F7E4E3F1E085919591009716
:1001860061F0A591B59105901590BF01F00105901C
:100196000D920197E1F7FB01F0CF8BBF8CBFE0E03A
:1001A600EEBBEFEFEDBFE1E2EEBFC0E0D6E00C94B0
:1001B600A7012C978CE0A0E0B0E0E6EFF0E05FD17D
:1001C6000A93099A089A0A9A0B9A0C9A0D9AA2E32C
:1001D600B0E05CD100E00C3070F4A2E0B0E056D1A3
:1001E600E02FF0E0DE011196AE0FBF1FAC910FD0ED
:1001F6000BD00F5FF0CFECE0E0930006A091000675
:1002060020D008812D960895119A11980895AA93E1
:10021600E881E87011F0159A01C01598E881E4703C
:1002260011F0149A01C01498E881E27011F0139A43
:1002360001C01398E881E17011F0129A01C012987A
:100246007CC0AA930A931098E9D033C0AA930A9364
:10025600109AE4D02EC0BA93AA930A9300E0E02F36
:100266000F5FF2D0A491F2DFE02FEED0E491E03000
:10027600B1F7088123960895AA93E881F0E03097B4
:1002860019F4A981A05814C0E130A0E0FA0719F4C6
:10029600A981A0540DC0E230A0E0FA0719F4A981A3
:1002A600AC5606C0E330A0E0FA0719F4A981AC52B7
:1002B600C8DF22960895BA93AA930A93EB81EE0FAC
:1002C600EE0FEE0FE05CAE2FBCDF00E0083048F426
:1002D600A981BA81EE27A00FBE1FAC91B7DF0F5FD1
:1002E600F5CFA0E8AEDF088124960895AA93E881A9
:1002F600EF71E064E0937C00E881E07221F0E09128
:100306007B00E86003C0E0917B00E77FE0937B0021
:1003160085E38A95F1F7E0917A00E064E0937A004C
:10032600E0917A00E071E1F3E0917A00E061E09318
:100336007A00E0917800F091790021960895A0E086
:10034600D5DFDF01A3D00895E1E0E0937E00E0E091
:10035600E0937D00E0E4E0937C00E7E8E0937A0038
:10036600E0E0E0937B0025DFE0E0EA93A1E0B6E081
:10037600A2DFE1E0EA93A9E0B6E09DDFE2E0EA93DE
:10038600A1E1B6E098DFE3E0EA93A9E1B6E093DF06
:10039600409A60D0309B1FC06BD0A0E057DFCFDF04
:1003A60067D0A1E053DFCBDF63D0A0E24FDFA0919F
:1003B6002106A03151F4E0E0E0932106F09B02C053
:1003C600F09801C0F09A46D005C0E0912106EF5F93
:1003D600E0932106DFCF30991FC04AD0A2E036DF76
:1003E600AEDF46D0A3E032DFAADF42D0A0E22EDFA6
:1003F600E0912106E03051F4E0E1E0932106F09B24
:1004060002C0F09801C0F09A25D005C0E0912106FF
:10041600E150E0932106DFCFBDCFFFCFA2E0B0E0F1
:1004260035D0E981E07F0E2F02950F70A02FEFDE09
:10043600EBDEE981EF700E2FA02FE9DEA2E0B0E03F
:1004460025D0E2DE08810895A981BA81F0E0EA0F9D
:10045600FB1F0895E5E0EA93A0E00EDFA2E2B1E01B
:10046600FADEE3E0EA93A1E007DFA8E2B1E0F3CE2B
:10047600E0912106EA93A0E0F099A1E0FDCEAC0F51
:10048600BD1F05900D928A95E1F70895109639F0F3
:10049600A89580EA9FE00197F1F71197C9F70895AB
:00000001FF
