:020000020000FC
:040000000C9491E9E2
:100004000C9400000C9400000C9400000C9400006C
:100014000C9400000C9400000C9400000C9400005C
:100024000C9400000C9400000C9400000C9400004C
:100034000C9400000C9400000C9400000C9400003C
:100044000C9400000C9400000C9400000C9400002C
:100054000C9400000C9400000C9400000C9400001C
:100064000C9400000C9400000C9400000C9400000C
:100074000C9400000C9400000C9400000C940000FC
:100084000C9400000C9400000C9400000C940000EC
:100094000C9400000C9400000C9400000C940000DC
:1000A4000C9400000C9400000C9400000C940000CC
:1000B4000C9400000C9400000C9400000C940000BC
:1000C4000C9400000C9400000C9400000C940000AC
:1000D4000C9400000C9400000C9400000C9400009C
:1000E40080808080808080808080807F807F7F7F10
:1000F400807F7F7F7F80807F7F807F7F807F7F7F07
:10010400807F80807F80807F7F807F7F807F7F80F3
:10011400807F7F7F7F80808080807F80807F7F7FE3
:100124007F7F80807F7F807F7F7F80807F7F807FD5
:100134007F807F7F818080807F7F81807F7F7E7FC3
:1001440080807E7F808080807E7F7F7D7F7E7D7FBC
:100154007F7E7F808181828280807F7F81807F809B
:100164007F7F7F8080808181807E7D7F7E7C7D7D9E
:100174007C7D80807E7F8080807F817F7E807F7E8B
:100184007E7D7D7F81828383808283807F7E7D806C
:10019400817E7E7E808081827E807E7D807E7E7E6A
:1001A4007C807F7F82828382838280807E7F817E47
:1001B40081807E808082838381817F7E7C7B7E8040
:1001C4007C7F827E7D8181827D7D7F7A7E7D7A7E49
:1001D4007D7C7F808082827E80817E817E7C818224
:1001E4007E81837E8284847F808183817C7C7C7B0E
:1001F4007F807D80818282817C7E7F7A7B7E81800C
:100204007D8080808483858481817E7D7C7E7B80EB
:1002140083827E7D8082807D7B78797E7A7B7D7A05
:100224007F817E8183808084807F7E7B7E838281C8
:10023400857F83868686818084837E7D7B7A7B7EB0
:100244007E8080817F807F7B797777787D7E807CDC
:100254007E83868788888183847D7B797B81817D89
:100264007B7E818285827D7F7D7B7C7E7A7B8182A1
:1002740085868281857E8080777B7F7C7C807A7E88
:10028400828385867F83867E807C7B81838286854C
:10029400858484837C7975777A7C807C7B797F8381
:1002A4008789848086817E7C7B7E8581807D7C813C
:1002B4008384807D7C7679807A7B787B8082837D61
:1002C400827E78807C777E80788082797D82828548
:1002D400837C82817C7C7879808286808489828315
:1002E400847E80797B847E7D84807B838588818401
:1002F4007E7F817A7C7D7C8488847E7F8487857AF6
:100304007F82777E80777B81797C837E79827B7B19
:10031400807677807A7A847E7A8384838984818ADA
:100324007F7D7E7C7B7F8A89858D8E87898B848087
:1003340079787F787978767F8689878287827D7AD3
:100344007478817776817A777F7F78788079707313
:10035400787073797C818283848483867D757B7FC6
:10036400757E84797D86878A8C898888837B797673
:10037400747E8179828785888B8584897F7D797570
:1003840074747A828887838E8B84847D7B847F7760
:10039400827C757E817881867C797C797776768497
:1003A4007F8088888889887A757D71777C71777E6B
:1003B40082878A888B8F8C85817C8682808D8780DA
:1003C400828988888482787680756C6F736F777B76
:1003D4007F7B798479737D77807C7685838281883D
:1003E4008C818B897B8285757E7B707B7B76828416
:1003F4007877837C7B847877817B818A7E7D898C06
:10040400847E7A7883878B8C7F7F887E7A867E7AD7
:1004140078787A717A86888B908D7F86877A756DE5
:100424006D7B797384877D838A7F88897A797771F4
:100434007B827783877D8985798388797882787BC5
:10044400877C81888B80798A807575767F7D8B899E
:10045400878689928C858D7F767B8477757F82846D
:10046400878B7B7C83707878737571737D8B8285C1
:100474009084878A7C7D746B717D70717D798685AB
:10048400757A837177817479857C82898888898B70
:100494008677726E79777E887B808B878D93887E52
:1004A4007A7E837377818185878579807B737B6E80
:1004B4007580707A8B8C8292928A968E84827D77F4
:1004C40080877E8387828B7C6F7875697976687282
:1004D4007E717A84867F7E8B8379747B79758A8832
:1004E400797F8D8F85898F7C727D806D797C768311
:1004F4008780747F7E7383797A8C857D8E8F808AE2
:100504008E7E8E8A7B7A746E7E887D878F859086B8
:100514007175806A6978696F7E6F7A8787757F8D58
:100524007F7772737F78859084818E8E8F928D7B96
:1005340073777C6B748183888B8D7E8389757D76DC
:10054400707D757281908B85938983908478736BA9
:100554006578746A7C81888B7A7183836C75817108
:100564007E897685928E7B8490877972807672827A
:1005740086777884818688766F717C7A6B768590AD
:100584008C88947E8C8E7F8679808973808C928906
:10059400859382898C7970716A72847574888F9955
:1005A40091847E808D827F8A798689767F856D6B42
:1005B4007D7A6A656367747F8A7F6D7F8A80788DB0
:1005C400807A76797A6E818B918C8895808A8D7801
:1005D400716A75787672868F857B898A8D917E7330
:1005E40073676E7E70798C7B878778737986778161
:1005F40085737F827D857D6B74797E776A6E776E75
:100604007C898E848E9D90899C9386808786738155
:100614008B8B8D8E8D797D8068676A67706E707F35
:100624008C998A929D84928E788680768C7976874E
:10063400888E897D6D7285717B8772838F7F858EAD
:10064400827A87857061616D747C83886F798E7915
:100654006F8B807D77808B78848F82908F8F8A7F59
:10066400787760616A6A75716B838C7E7D928C8009
:10067400887771857B8191777F8D8289907E6A727C
:10068400726179726577767A85888E878D857570C3
:100694006B758393897A8A8D91969698957C8483D9
:1006A4006B6E847D8493828A8F8D958775726C6658
:1006B4007C81758893867F92918277716F7A786E48
:1006C400868B939580858E836874745E6C735F7576
:1006D4007F6E868B919396928279707E777F8785E1
:1006E40093807E8C7C7788756D7368606B80899548
:1006F40091809386768C75686A7D6C758A787F9014
:1007040089758A856B6F80726C78827893917E97F5
:10071400848B8D6F6E816C6C836F646A7D7E788749
:100724008C787F8976787C7787897C9694969B965B
:10073400957E79817E6F697B6A6E82898F848D96BE
:10074400867B7A83798384928D7D908F908F86883F
:100754006D707F6A6369807A778A80858C8F907BDD
:100764006B76827279826A72808386807688856CE1
:1007740082806F78868A88868D89898B8373686581
:1007840078766B74707E8D949B9190927B77677072
:100794007D686E86746F86888B908A8176716C67AB
:1007A40075736E838E8298988491917B8571637141
:1007B40080696878677A8287918F75878B7179767B
:1007C40074758596968392979995817A726D7C78E3
:1007D4007E7B827D7E919399998680907A6D6E75E9
:1007E4006C848C76798A8A908E7785806C6C6D6542
:1007F400637480868B8C938C7074836B617766656D
:1008040080756D7F7A8790878491837D927A7288D0
:10081400827C8B7C8D8D868F908E7D7E8E746B7AA0
:100824006876776E7B8C91998C918E828F716C66D1
:1008340067606C747A81898E727185877870788329
:100844006C7E927D929B9C9F9E877F8D7E6D706156
:1008540065806E617885888D92998C7A78877472B8
:10086400857E80849798949394888D83726A5D6A58
:100874007869787B6E757F8C958E7E8977867764B0
:100884007377747D7661647781757C8B8E8F747ECB
:100894008F78708677728B7D7D968084968B847F2B
:1008A40071748A796C7E8C897F897F898A7983794E
:1008B4007081717D8884887E909798998794957AC1
:1008C40076717C726A737E7A86917C868273836980
:1008D400636D65668274697E858B8E848F907C8758
:1008E4007977787180939B99969E898F96817E7192
:1008F400647480746D72767D7F86706B7B687B6EAA
:10090400656D8073848E8B8D95888F8C76888268D4
:10091400687D8A7A7280817E91949A88858F6F69C6
:100924007A806E7585736C7F7F8779727D6C7F7832
:1009340077856F7B8F8185998D8499898F94767A59
:100944008D8B7A8C7D7083868B8473778B746E6FBA
:100954006B67768589909293918D747F7561767CAF
:100964006D6A6B697189949DA08F8C9C9684786E56
:100974007A7B877463737D7D8589706E8279667AEC
:100984006E67827E758F8A7B968E809381778F8740
:100994006F877C667581838A7F6F877C727A6969C9
:1009A4007E7A7C878A8C868A8D856A6B757981715B
:1009B400716D6E88939A9B8E9C9389716E796D7E0E
:1009C400806C6E7C81858C8777737370726F738D86
:1009D4009190A19A909E9C8D8F776B7F816F84807C
:1009E4006B7E868A8F7E718A8777746E6B7B898A29
:1009F4008F91908A8188836C61616C736C6D6B6D6F
:100A040083929D968499968280716A737F8A7E6EA2
:100A140070797D81837278756E6C6C68718B889344
:100A24009E8986929194836B75816A727D636673E5
:100A3400767E7A6A7D826D7F7E6E87927A7E9295CB
:100A4400999F8D85846F7686847F787570778B9275
:100A54009A8A82998D7880746E738D8571828F8F56
:100A64009397897E7D72757E5E6E8375728B7C75BD
:100A74008D7A7589706E8482738D806F8286888D7D
:100A8400857D8D72727D686B82908D8094999A9B1E
:100A940093948E7479857070826C6C7E89908D7C51
:100AA400898C7A7367665E6C836865787E818389D6
:100AB4007F63686B70635E6F7B74829180879384BD
:100AC4009882747E8F7F819179828F90988C758AB9
:100AD4008876787169738D83769094919294948DCD
:100AE400756B7A7D63767C6E8591989F9284928FE4
:100AF4007C776F6F81898B7A7A878588776C686455
:100B04005F6A7A657388898F99907E8D8578856C04
:100B1400657A7B6B87876F828E949C867A968B79B5
:100B24007C726D83877A8B8D8D8E8A8588755D65E1
:100B34006F696C7A6C697C8D989B888A9A907E7FA9
:100B44007A73887F716D6B7A8582706A7B6D647E3F
:100B54006E616D7E727C897D808F778986738B94BC
:100B64007E909E868F9D9B9D987F889277716F66FD
:100B74006B848B7A788F867F8C8E8769687E7362AC
:100B84007A706971889391839B988B827888848129
:100B9400958471788589836D707A65667D6F6278D6
:100BA4007D7F83897D6A787980756573816C788DA2
:100BB400777D90949B9C838A9A867A80726F888BC7
:100BC40084808588768C827C806A7C7F6C72736773
:100BD4007287949786979D868175838179918070B9
:100BE400838589896D728062687E6E688075758A76
:100BF4008A889175798A6F70898371878A74848DE4
:100C04008D92837C9084807877747286978F94A079
:100C14008F9097808A856D7E726A6967667A8B8EFB
:100C24007A8B8D737D6D7180686C7F706574808440
:100C34007878876A677E72656F806E7E8B8F9698F0
:100C44009B9E897480897373827373888E969A8449
:100C540089907C7873746D768D7C86958483958178
:100C6400786B6C847E716F758A919D90829A82797B
:100C74008576828F757A8A7F7785867273836B62B5
:100C840071756567798390877D9480898A716D7F9A
:100C9400836D7B85718390868D958D8A8072717842
:100CA40075758A8D778A9784949A8E7F78828885E1
:100CB4006D68616370777D7F898B746C626D8570FC
:100CC400728F7B718892848095806D7B846E766F41
:100CD40061737F6C8085789282728A8877918F792C
:100CE400849291959697978B807573706E76909594
:100CF400869593939C948C77787E6765625F6C7B12
:100D0400858E7E88937D716B63797E6C828F768409
:100D1400947F8496847A8F7F74797E748F847A9595
:100D2400887891836B7E816972806A6A7E7F83880A
:100D34007E7F88716A7664637485777B93878D9BE5
:100D44008D817C748A8A79756B76818487888D8B92
:100D5400746A615F727868838871849382829788E9
:100D64007A7A9180788E88918D7D92817C92826C42
:100D740079886E7A8571868B7D918A7D90927C7359
:100D8400816F6C838E807B7B78839382848F7C924B
:100D94008D78706B7781897C778D8B7A6E68738898
:100DA4008C79889275868F788D937F797471676B4F
:100DB4007D86907B738C766D8573647B6E66807D97
:100DC400696D7F828B7F818E8E7A728B736C839038
:100DD400857B837D8799887B85748E7F6F6A63703A
:100DE400817C7B85878F7F706A6881766F8F868030
:100DF4009C8D87A09B8783929A827F7987907B8F33
:100E04007F778E7D6474756A6B6865677D78808B87
:100E14008E98967B707E8372828F8287907C948E6C
:100E2400838B789297837F7A76898E8F9190908C3A
:100E340076655E67747361727D6D7F8A7484937D59
:100E440077918978787B79898A7C917F7E8D7563A7
:100E54007378626E715E6A76737C807C7E83696C63
:100E64007C6F7D908984967C829893838673858F2A
:100E74007A7976748A907F7E8C8F8C7870666B809A
:100E84006F788D75809A8689A1957F8B8F8A7882F9
:100E94009183847D6F7E7D8B7C69778370677B6EA5
:100EA40070837D8888888D908571766C677A8B864F
:100EB400747F8689929696848994907B7269677907
:100EC4007F848B8C948877716B7581708090788027
:100ED400958381927B69768477676578806C7A8460
:100EE40073848B736A837269827B6C7B87878B8B39
:100EF4008B91876C7377656C837C788D88899698E1
:100F0400977C788D8F7D726B7584898C8F9296888F
:100F1400766D6D76837476917F7C93888F988A7BC7
:100F24007571796C687C87838B9189838A856B70F2
:100F340079647873647E81789085869997857E80BC
:100F44006F71878B939076748783728380667A7CC3
:100F5400686A6972858778878D91957E73848A76AD
:100F64007F907D758B72798F83787E758C7B6C7F97
:100F74007E7D8782756B727662786B617976697E25
:100F84008C8398837A95988880837A7A919D8F89C7
:100F94008B86958786918C8E93816B646A757E753A
:100FA4007B847590897A81778A807A9287838C751D
:100FB400818786756A657C6D6767687886898B82A8
:100FC400858A7A8B747F886C738482808D7B7F9111
:100FD40081716C6A7C737B8B7A868B91907D897D21
:100FE4006A6A7A7F6B6F7E70848488847B8B777463
:100FF4006D798E7F8A889199848D8E83917A6B74B2
:101004008275877C738E838591798A868B767C8DB5
:101014007887897079897F737C8A7E6D656B797D29
:101024008A806D6F857E6D8886787A75867E7A90E3
:1010340092889194877F8E796F6769786C7B878FAC
:1010440091808C837D8F8074726C6C847F739188A3
:1010540085957A8896837372816F7A806C848B719C
:101064006C828776706A758588949077859285748A
:101074008B84738A87746C7383888C928C74867E59
:1010840074816B7B83717A8984788388768B817091
:101094008575748C86707D897D948B768090877736
:1010A40089867B8F868C959488818F7E6B625F683E
:1010B400717A7E6A6F857D6E858A746E7C8873858D
:1010C4008E7B90959983828C737471698178728A0E
:1010D40086788B85798D7F6F83726E8A7F6F888126
:1010E4007B927E7E917A7C8E73798B6F75828689F2
:1010F40074868A736C6266787E897D738182858743
:101104008F866F7183726F857F8A9B998083978B9B
:101114008889797A827F8B8D768B86758D887574B4
:101124006B6C867E6D86858199857C928977817CBE
:1011340073828179877C8786738A7F6F6B65827CF3
:101144007B89768B8D808F93887D72716561726CDB
:101154007D89837F6D7D8989787075746C868977C4
:101164008F8B839A968388847784796982777C8F3E
:101174007D6C84867581786B6C7B6E7D88887481C8
:101184008D7D716C6575807E8070808F848F988B67
:10119400877C847E6D7B7E8693917881908893840E
:1011A4007C7F8484999583998E86978377846D77E1
:1011B40084686C837271846C76856B74856F7D82B0
:1011C4008594867E8A6F7E8975706A798B82877C26
:1011D400738987828C8F7C6E757465768274908B2C
:1011E400758C897D918677787E74748B79788D750A
:1011F4007A89787A83677C7E6579886E7A8D788738
:10120400957A868C737987838B81807A6D837A69EA
:1012140067627680788D7C84867E8F939785827FC3
:10122400756D79817998937D7D9193868C777D7E98
:101234007B838F75848A788B897384826F897C6BB6
:10124400857B7C9687768F82718C82808F767F8D6A
:1012540088937D75897B69625F757A74796B7A840A
:101264008C908A8E87847D6B6C7D858C958C838332
:101274007D7D8E7B777B696B83797B8A727D8B78AE
:1012840071836F7580647B7F6776816C7A897576EC
:1012940087777C828096888A867A948F7F7B75791B
:1012A4008E8387877A8595888D907B767F7468771F
:1012B400847F908B81786C7C8A7772706A828D7956
:1012C40079957E7E968A7B87758B7D6776857A7F16
:1012D4008F778396817C8F7A7F797290897A9281D5
:1012E400879680776F6C83806A6979818588878720
:1012F4007E7A756F6C676B8392858F968095947CEC
:1013040088826F82887481876E7B88717575637D2E
:1013140072677E727D8E8671878E79818076776D15
:101324007B8D8C90947A8D93776C70837B716D76C2
:10133400847A928281977F7F8C72777A6F878D8788
:10134400947C879A847D8173778D7F809073808B62
:101354007F7D8269777E697D806E868B78869582B3
:10136400828A797A81758A8B7C8C78818C796D6795
:101374007282706B717977878773918872898974A7
:1013840081858794818680768C7A7982697C898448
:1013940072867C7184867D8D75768B736F86847975
:1013A4008E7B728B8879807775736C7E8B919A8C27
:1013B40081948A796F697B77687C8B7B8B917A9136
:1013C400967E828D787B7C788D7F878E74848771FE
:1013D4007D796D697A77758C74778979847F6B846C
:1013E400776886817A918A7789917F828376766A13
:1013F40073898B8C967E86937B72777C8A7A7073E2
:101404007F838F85798B836B797B66727A7E9387F2
:1014140090887B92807B917770878A7485836C81B6
:101424007F6B7C676A7F6A71866F7C928175918E0F
:101434007789877A7B7485988A9396859A8F797051
:101444007485756C837C6F808B7882836B7C8B78DE
:1014540074898487948E948C7D8E79697B67607897
:101464007E6B808572898C828E7B768470738373A5
:10147400828C7B738988737A77726D6B838E7A8D95
:101484008E829C96807A8E816C757779827586744B
:10149400847E687779696E838C97918C9375858542
:1014A4006E747D68748C7E80957B7F947F7F886F5B
:1014B4007B846D8183758C8E787E927B7784708338
:1014C40085768F96879186889780776D7D8A737EDF
:1014D40076817E828671848075827F6B6C6B7F8B54
:1014E40082888472897E71857F777B8D79858B76FE
:1014F4008D8C808F7974866F7186757785827487F9
:1015040088727B7B6F756E758B8D9196838E9581BA
:1015140072727D7D716B777D728D8379908C7D88FD
:101524007270827384807788787A8A76777C697A15
:101534008A7D80907A7A88858A8B757B7F686B7EBA
:101544007D788C7981928F827E7A7A747587919175
:10155400988C84958D72788987747682837B8F8941
:101564007B908A7A8B81777D848B9093907F83861E
:101574006E726E6377726879756F8272677D756952
:101584007C756B6F82828A8E7B848E867C756F6C91
:10159400686B80888E9A8983958F7A838F85776B21
:1015A400778087917D79887E727F78737173868D59
:1015B40096937C86826B7D6A6E7F6F76856F7C8C5A
:1015C400797A91807C8E7E7A7C8E919C8F869A9695
:1015D400877F78726C68758683848D75848368715F
:1015E4007A7E74696C82778793848C927D7E8C7FFB
:1015F400778697878A997F818A7B80646278796C01
:1016040080766F88797B8E8076736E6B7388788B27
:10161400937E8B969281796E6E66697B838C9391AF
:1016240082898F7F7179746C69788A86978F859B9C
:101634008B86867C796A7882848C897077766B75E0
:101644006066786C7385747B8E7C8A9A8884847EC9
:101654007A889498A08B81948C7D84716B65646D79
:101664006E7D8A8D79878A73878778736A72848C92
:101674009797838C8A7E8E867A78707D898E928005
:101684007B87717E67617774687D706E8879738EED
:1016940082797B7A7D738A818B937F92998D82760E
:1016A4007275667778738A8F8B82917D7282877D5B
:1016B4006F676A7C828E84898E777A8A767C81755C
:1016C400888C928F778483717862697B726F83715F
:1016D400798B7C8E94847E7C7F76858E87A08E89A0
:1016E4009D94807C746C686F7B80868D8B78857606
:1016F4006976847E6E696D8086968D82948C8092E4
:10170400827B74758882908B7585816C7A6760732F
:101714006E667D717083867B8A88768E8A7A8084F1
:101724008E9B9F8E969D8A8E81716D6163787C7E7F
:101734008C747385806C6C7D7D6865697C7F93880F
:10174400769383708887767A7E888D9196828A8D47
:10175400737E6B68807E70867E7D93857D918676B0
:101764008C8B7A7C75738C8B7A8F978B847B716E60
:10177400617184758086758B89766F847B706C72D9
:101784008A7B8C9A7E8C93898A8977736D72808523
:101794008D7B7E8C7B846C62757D6C8282748F857C
:1017A40080998D7F7D767671837C87957B87948500
:1017B4008A836F696B7B67787D8A887E91887D9345
:1017C400857B777074838C978884947D8C84726C09
:1017D400716F7184897568757C83746375686D7FB6
:1017E4006B72867B7E8E82968A7E87847980978CC4
:1017F4008BA09C9898818775867E6A767A82846CA1
:101804007481858175726A6B7B7A8C9786978D83D8
:101814009485798B74717F7E817F69777F73656727
:10182400707F706F71888F939BA09581797B866C94
:10183400797B728C7D868C7370718987736E7F82DD
:10184400888D757E8A777B826B6B6C6B8189808DCA
:10185400998F8F817681738280808A72848C80894B
:10186400737186757281687B7F778D878B757E91A6
:101874007A898C748A9090988C777184876F7A8631
:101884007889887A8B80768C736A67667789897A97
:10189400918B808F786E83746F7E78866E7B8A7C62
:1018A400816E7D866D717F6F8185898E8B857C7954
:1018B4007F6B7D867C8E8798998676778C88726913
:1018C400768388747389757287766A657280878C6B
:1018D400829486818E797770768A88928B82978AB1
:1018E40085866E81776378727571748B837C787763
:1018F40078787D7A78909094A09582747D887867C2
:1019040063767F6F748B79778E87807C72869995E6
:10191400859A9F8C9397808981727C80816A7C7B75
:101924006F7F6866796567766975798388818C7657
:1019340077867A7F7B7C929A9D989A857E8E8C7628
:101944006D7B737B7B6B84707185736E6A6A79833C
:10195400857E948B838B7D72707D766F887C778D8A
:101964008C9288717C7C6271756F7F73878A798CA5
:10197400938A8885817C8D948A9E968781869085BA
:101984006B6B7E757667797E6E858375716E847CEC
:10199400898C8A9E9788807B7772798375847A8410
:1019A4008D7F826C7D8165697B6B686273838479CA
:1019B400878F909B8E8781958C959D8D7F7E91835B
:1019C400746B797C77767D8A75797A6E6A636F7FBA
:1019D40075858C958F7A7A836E7B8576887D728304
:1019E4008E8D938A7D8F776A7B706C707279777E27
:1019F400718676847E707D8F808F928487828D7EBF
:101A0400796978836B728781818B73798B77798C11
:101A14008B81828C798390777E9181888682857A86
:101A24008B8C8B8B848272696A796D7D8A7A8683CA
:101A3400837B837D6E73747D8389766C7C7E7982EF
:101A44006F708174808C8885888F79888376878984
:101A54008A8E91867787726C7D67687B6E758980C4
:101A6400848B8C8F84846F707E6C7B816D7D847994
:101A74007A8F89808286969E9B86818E81848369F3
:101A8400757F696F82847D8985798C767C8F817579
:101A94008C84748A8B73848B7485806F7B81757E50
:101AA40087817675686368767D858C8080827A7696
:101AB40082706E7D7283928C7B77898F83917F7D18
:101AC4008E787F8B837F8289747D706C847A708139
:101AD4008977878C756F8577718774788C7E848716
:101AE4007B898874727786778A9285918D86807EC9
:101AF400776B7D77848E937E7C89868C8D737883D7
:101B04006C7882817D888D7D8E7C788C78858C90B4
:101B14008E7F786A657566697D6C6D7F818E8A7447
:101B24007E797B697C7473827D89898A7D968B85B5
:101B340084777A8D91989A8A897C8B8A7369787470
:101B4400717871827A7F7A6B7E6D6D7F79867B8AFC
:101B54008A8782708285728B7774867589848D8278
:101B6400798E7772837A87757C8A776D70817374C6
:101B74007E727E92838A9A8C8076877F6F6A758163
:101B8400867478887A7A7D7B6F6A71828A8B819574
:101B9400898A978280837D8E85908E7C9090858AB9
:101BA400777F836C787D738182888B7B7D7B767D68
:101BB400738576798C8E9495867475877E6C6E7732
:101BC4007C81696E82747185786C67727C7F817A9E
:101BD40088827480707C75718678838B7F958E8CF7
:101BE400937F918A7688817A7D848E87787E7681C8
:101BF400757C8471828C8E8A81706C7C8473777717
:101C0400868A797F8E867B8A76706B75858B928FB8
:101C1400918F908F7972746379776A7B75878F85DA
:101C24008A7881886D807D6E7E8186887A6A7283E7
:101C3400707D81758B918E9D9B8C7C8A9785757147
:101C44008389856D7C87786F8779666774788580EA
:101C5400768A7E82887274706F858586938294906A
:101C6400808C71768164657A6E646A7F827A7C6D19
:101C7400839284847D7B9094999E9380798A8874DE
:101C84006C748282857685816F88806E6977878F90
:101C9400898C96818F7F707C71748773837A778D3A
:101CA400848D787389756D816B75827C8C817E7867
:101CB400777E85817B7C939B9D9C967D77888473BE
:101CC40077656A7966798783708785736D738A848B
:101CD400878581958E8581717869787F718D7D7E08
:101CE4009090857773877260766F6B7F7A85877340
:101CF4008281797F8186738E8D8C9D947E75848E8E
:101D04007A7D7E7585796C79856E7884716E707351
:101D14007D918184948E9484757771808B79897A8E
:101D24007E95948578768B7C6E7F827885868B7D94
:101D34007D78677D6B6E816D7F8C8E969A81757FC1
:101D4400908283827C8D8C8883907D74856D6B6595
:101D5400636F82857D8E8F858D79716C6A7F6D7ED0
:101D6400897386958A8376758D716E8981758A8E5D
:101D74008C888C6F757F697F766B858C959A887754
:101D84007A8C82767D74807D6D7B8C7C7992837174
:101D94007478778A847988898C8A7B756B758B7C57
:101DA40088957F9195868F798A876C7B7771816D11
:101DB4007F786E84736D6C73776A758C97958E8B50
:101DC400787C8C7C797A6F827F6E7B847376877A59
:101DD4006D708588878B869D8A9497827E76868FA0
:101DE4007F918481917F8071677C6D6172696B756D
:101DF40082807C817489837B80787C91999E9C8C81
:101E04008C808D846F6B707D78637581756D6D7F4B
:101E140077677480748275898684937D7B867A8ED5
:101E2400827A8A7B888C8887798C8A7B8C84777B7E
:101E34007F8C818D84838A808788787D8A8C958B3A
:101E44007B717D836F6D7D847E817E8C897A7377CF
:101E540078646B7C6B7C7B7F827883727C7774760E
:101E6400747E897B7F8B8E907C8983697878657793
:101E74006F7684796C82847680837A8F9598A09C1F
:101E8400897F8F8D7775718084787F8B857C7D6960
:101E9400776966796C798089857C8E7D7A80758492
:101EA4007F798C818C9899998995846F7A787968EF
:101EB400717C73897C8886777A83747E8D938F8412
:101EC4007B708380716D727C7680869185847A794B
:101ED400816D7E827D8E8796878E8C7B78817F86CE
:101EE4007C7C767D7F89816B7F846A697C6A75726C
:101EF40077827984797C7075746C75888D998E86F7
:101F040087788C80706E7A73787781858B87727D01
:101F14007F6B7C7E7B87888F818E816E7D817382CF
:101F24007B838B7C90989188838F76777E7A777E7B
:101F34008A7F867A7C886E748375768A8692918885
:101F44007D8493817A7786828879878981816E718D
:101F5400675D7072747C808A838E887A7B847686CF
:101F6400787278878A939386909074757D68747676
:101F74007C77857D7C927F79786F7E898B98898A3E
:101F8400867D8F786B76867973847D818281738276
:101F94007973837D89858C87798B7A748673777F4F
:101FA400687B848B828A827182806E7C7F7B7A7963
:101FB4008B81887B817F736F80797B898D978689FC
:101FC40081849076728282798C8C908F94857885C6
:101FD400716E7F8488838F817085766E7A6F7B7152
:101FE4006D7E7A7C6F7D7D7B7F796975626F7071A0
:101FF4007E75867D7A77888D868B93989F9C8E825A
:1020040089937F6C7482726F767B80828675847EFE
:102014006877837C7E8C89808179768A80748A7BD8
:10202400758A827A887A75847F69736F6E76757C17
:10203400778B7F7D78767280828D9D9F9C8C929524
:1020440096947C707F776B767E838C8D7680856C9E
:102054007D8B7275888E8B87856F837C6D82716DA5
:102064007D7B787D847D77856C6D81737A7C8883B4
:10207400968D7A84917A7F8780909390807E7B80FE
:10208400717F6870786478857669837D677D796E01
:10209400858678858988868C726C7F6C6D806E7C71
:1020A4008186938390958A8A7A7A8C7E80857F7FD5
:1020B400727D7E8382737B858B96957F7C86807B05
:1020C400896F73847075868A818D8F7B8B86778DFB
:1020D4008C7A878D8B7C8D7E74876F6E7F6B778413
:1020E400757D868B81706D61717B6B82847F878344
:1020F4008283877A73797B89928F7E7A8B857E8EB1
:10210400767A866E7A8E8678908576807B718685DF
:102114006F878673858870768167747F68707E693F
:102124006E82866F717C6878828391928F8797859F
:10213400848E777279828296897986917F9088726B
:1021440088826F86846F768173726F6A7A8D7D86DA
:102154009985859783758781758C857486806F834F
:102164008E7D72807575897E8F938D8F8A8A748631
:102174007A696F7B7589897372877D7F896B7582B4
:102184006B75878575888F7A76766F838779959353
:1021940080969679858F7681886C76796478807D4F
:1021A4007C7D6F677C7081848485857E788D7D726B
:1021B40075807E93887379887580886F78846B7A4C
:1021C4008671748B78847E7B7893918EA194929F90
:1021D40089829384827F7C6D7B74637781756D8142
:1021E4006D73846D8480848B858B77817E6E737F21
:1021F4007D918D75878C728180706C7D6977867115
:102204007D8E81787975708A837C958881968680A5
:102214009382748A826C78856D788D7E74897A78DD
:102224008B78888D8C858A8A7286826C707E808B8E
:10223400836D788670818A777278757C8A7C808FCA
:102244007D837F6F6E847B7694817C9485778D818A
:102254007F787A70797E6471868070877E7A8C76D6
:10226400868D8A8E94897E8C74706B7D7C8C8C7741
:102274008E937F8A927A8383687A7F717680747D65
:1022840072696E85787C9482869A8A819281778538
:102294007C6D78836F818D867384776D7D707E7B92
:1022A4008079887E7A857A72787D728E85788D8F32
:1022B4007C8F8A777C8276847E7086737383776E54
:1022C40075887B8E9A897D93807A8E7E77727283ED
:1022D4008A8573858E8F7D7784808575908F7C91B8
:1022E400888A867A7989718188878A7F7163707513
:1022F4006467696B7D7B6E878576908A7D7472884E
:102304008E978B8B977C7A8B7A728B8578746D74AD
:1023140077807A7B8188748078887064788482740A
:102324008176846F82887F99949A9D87868F86941C
:1023340082818A717B6D7883837383716671626F26
:10234400796A75798C7C89967C8C82848D77777593
:10235400847C87868490978B748388798077888F30
:102364008574818376787B758D8F7F938F7F837E51
:102374008A7166657667697D6E7E867587826D74FF
:10238400827C8D8E92928F9691797E7E817B6B7802
:1023940086717F8A8F867A817D847575666673629D
:1023A4006972787F838B8A938375746C8082809939
:1023B4009682919C838A968077826B637A67677D25
:1023C40085847E8970727F7A888F948177727C8706
:1023D4007F7487927B909587988D7487886A7682BC
:1023E40066717E6475887E80907A8D977C7C776F29
:1023F400889380819A877C91806F827C768E7C65BD
:10240400788774757C737C8487708276768B70771A
:102414008F827C7E897A7D907B7783866D737A7DCB
:102424007D6D7A7D736F7A8069687D757687878D17
:102434008C9493998B7D897D777D6B718890798A53
:102444009682968776888D6F758B7D6A836E737F8F
:102454008187766D6D6A77847D8F888A9C877C827C
:10246400917F827F7172848A918A7682837A7E6B6D
:1024740065655F647F7A7A94878A989B9B8A7F7666
:102484008274757B6F83968C8A9F988B8278718215
:10249400867D858D897773666B7E8473706D6A7EA5
:1024A4008C797587868A878073686D6B647576749A
:1024B400858E85898A8084847E74746C788E828308
:1024C4009A917F9281858E7674826E7285727D87F1
:1024D4008495887A7B766F7A908D8A8F8B95907AA3
:1024E4006A727E7A706E62697D76828A788E8D7D5C
:1024F4007C71787F71848B85888584947C847C6BE3
:102504007684737D8D7A8994858A967E7A8E836D9E
:1025140081798393857B918675877E737170797ECB
:102524007F818687867D76656A71697E8371758B06
:102534007C7E8E8F837A867F74897E87948780776A
:10254400787E8A6F6E8272748A816D717E6C7B85EF
:10255400727C8B7A8E8F7D7C857A79897787928657
:10256400958B76738477777F78816D8579798A778F
:1025740070838873817B828D97967D8D9A85847C08
:1025840076818B9399838A897C9079736B657E7D40
:102594006A7486748789768E886C7988887469737E
:1025A40081897E6F8885737C79788176788A768153
:1025B400867289837272797B7C6A758975817F766C
:1025C40088897E6F7986757081878B9291808691D8
:1025D4007A6F88837684859485929C8C9A96828B74
:1025E400816F746B66716D767F76647A7262766FD2
:1025F40062748780919C9F8E929F86837F75726B95
:1026040078878D87908E7B8D75747968766169760D
:102614007B848C84738C83718176818C7B8F999A73
:10262400A0948D988E837A66627073736B7C8488B1
:102634008E84787E727A636876667B88737C907AFF
:10264400788C91817B7578777C92887C8B91958549
:10265400788C7D6B69736E65687B868E8F969A8A9B
:10266400877D6B7186767A8B72829179819194865B
:10267400746D798877807F6D7E8C7B818E78728291
:1026840085728D8C777081898D85808B8E7C72703C
:1026940066718486829A8383918D908C746E827A1B
:1026A40068626D7A7E8287897B8878696864777EC0
:1026B40072908D829C8B7E979079847882836870E7
:1026C4008781778E77808F8E75837C6D8983738AFB
:1026D4008E7F8B8A8A8C8E77696F6570767D7B841A
:1026E40074748A78738787727C90817175828B91F8
:1026F40088887A878A786E6B80777087878B8D7BE2
:102704008A8A8E897070857D6A738471848C8195C0
:102714008B94908E747A8B736E7E7984876B7C86AF
:10272400826F69657077708B7E7182838B8A8E86E7
:102734008D7575886F70838890959A8F7B9185725B
:102744006B6B82877E7285907D91857B8E77696DB8
:1027540066706866607B7E72837086968A7E7D8EE4
:10276400787E8F7A8B997E758A907D78726E7F8A57
:102774008F8F7D8A9482707689797476747482914D
:102784008496989E8C8796857A6F67707C6E738525
:1027940074858B718691777E8379909178868F7911
:1027A4008C7F6A817F707179746A77737A87868483
:1027B4007B8C7A69645E66777D797A71868B788999
:1027C40096817F8479747E918D95928E9580917F88
:1027D40076686C82796B81876E848E7C84947D8329
:1027E400826A818D727C917C8C8B75898F7F7B77DB
:1027F400716E857B7B8E8C8D788488716B635F7042
:102804008483737282968D7A958F798A88737B8C90
:102814008B9286888D6D7E7C7777687182888C84B4
:102824008F7B8884748C7E79876F7D927B76928689
:10283400859C887A8690807687797185707B85847B
:10284400717A827065605E6E7C8883718395897805
:102854008C937C7C79706C848C808B85927D7B805E
:1028640071695E66735F6F7D7777818877888F7F04
:102874007D707990907C8D9A839B8D7D91938B82D2
:10288400818770877A6E8A8171798B8075716572A0
:102894008384908E7D90947F6E838070908379780A
:1028A4008390989295897590806F6D64777D6F8918
:1028B4008B71778D8171897B6D7A636F87726A857D
:1028C400827D98837F99907B7B887E81927F878F9E
:1028D40090847D8C7C6D665D6B7B80897B778F7F3C
:1028E4006D828A817A7D6D68738575848E93877B0A
:1028F400887270626D816D7B8F81798F887A8F8AFF
:102904007D8872798E7A6F84877894867892887BB2
:10291400907B71897D6B8181897D7A8E7C716D66F6
:102924006E7E828D7B849091887C8E7B6F857668A9
:10293400838A819088968A7F958F80797273807E4E
:102944008D727F958279918B747670657D70667DCA
:1029540076758A776D857B787A7D70898C798B8D95
:102964008A8D8B917A6C6963687A858B7F7B8D9075
:102974008E84928176736A687E8475868C9490784E
:10298400838D826D75806D7C88708492818A998F25
:10299400837D71888B747F8D78888D737B8A6E6D4F
:1029A4007B68627C7373817A847F82826B6A6760DE
:1029B400707F898B8195879688958F80817C7481BF
:1029C4008E81999D87827C778F857874716C768BE4
:1029D400767A907D82907E79896F77826C7685791C
:1029E4008692777D94807C8C7373837E7C8E7C84CA
:1029F400777B866C66606877787F7C6D7E8387875B
:102A04008B8B817D736E768985929C9BA0908D982B
:102A140091786D7A816D797E6E8682778E8A7385E0
:102A240080708776697C7C6F897D6E867A6C7F7E08
:102A34006F77887A88898A8B8D9584727469667FAA
:102A4400808789828F9A90929583897E6A677C7247
:102A54007083867E6A7179807F70746F6B728B7EEF
:102A6400809683899880868E748582666A7A7B7E56
:102A74008B7E7D8974758273798481859396918028
:102A84009386727565727F7A8C80738A887F7F865D
:102A940087777B6F696D857C7E929699877E7B8D27
:102AA4007871777B7381886F828E737C8C7886854E
:102AB400728B88767A8D7E888B747F877A85757819
:102AC4007B7C768388878A788D867679716B73822E
:102AD40086787483807D798A887C7B7C727E908101
:102AE4008F8B8A94828C88817F70746D667A756707
:102AF4007985787C8A7A86756B7E7F6C7384758819
:102B04008F7A82907E7B80777780807E9087938E89
:102B1400879381776C707D7C887F717F8186807DCF
:102B2400887171716B6D81868D96989B857F8F7F7F
:102B34006A656977687B8171898F7E938E7D958BB9
:102B4400788C8B7186877890857890877883847960
:102B54008386868F868F7E778C796F6B656D8176A1
:102B640076827080887F77846F6C696460767C7A03
:102B74008F8A8A92808C8C73696E726B738A7E776B
:102B8400918D798E907C8785768A8173877A7A8D08
:102B94007E738A81768B76738C897E937F848D7E17
:102BA4008F7F77726875838C8372827A837880854D
:102BB4006C716C657284788B9A8893898498937EFF
:102BC4007D8982818F7D7488787C8E78818D7889E7
:102BD400947F7D908B7F90807B8C827E86716F76D4
:102BE40070777C717B74858679756C70837B86863F
:102BF40078847D8B848587757D826B7384737C86F2
:102C04008789847A7E837B6A656773776C7D8A7B28
:102C1400878F808A827485796A7A79798082717ED5
:102C240086767D857878837F8E9389978E93988630
:102C34007E747885747C847C898E908B8F8773787E
:102C440075626E6C6D807F8988798C8F7B808070D3
:102C5400778A867786868A8E8B808370747D6A777E
:102C64007A70848C837E92897F8D7C767B7A818E48
:102C74008391857C8D8072756F7B827781747C896A
:102C84008677848777777162707671848A958F7C72
:102C94008D8B778385737F8D76788A778086808322
:102CA4007B6B7C7B677378697A8577768D82778A8C
:102CB400847B89878A9A8B968F7E908A77747979B8
:102CC4006D747C7C77798671778573707F716E7E85
:102CD400858D97988E777A8B77707B696A80897AED
:102CE40085907C82907D7C7778887174897A8289DA
:102CF4008B748295818690838A827D8F8F7F8D7C71
:102D0400838B746F796D7B737B716F8277837E891C
:102D14007D918A776F77807385808A826B7C887ACD
:102D240073826C71807C7A86867D9090827C6F79C8
:102D3400846E7286878E978D7B8D816F7F6E6D8199
:102D44007B7B898B8E89818E7A737C6E8185888763
:102D54007E8E8A958B908B778180667C7A677D8264
:102D64008474696C80766F7F716D7C87707F8C76DC
:102D7400848E78848B707F857B748973758A787E62
:102D84008F79808E78808C73808B888D787B897224
:102D9400757073756F847C7A8B828E989D93868808
:102DA400836B7885838A8C8F7C6871837B6D6B726F
:102DB400777D917E84947C87907A888267807B6516
:102DC40073816E787F6D818A77898B75868F7C8C11
:102DD400868E8D71858B71787C7E97807F8A727FD9
:102DE4008D8F808C8974737167737E70858E887AF9
:102DF4008A7E7D8B71686A736B83727E8E7B84910D
:102E04007B89877183806B728288818B76818C71D8
:102E14007B806F747A758A887E927B878D747975CE
:102E240075747E8B887C89809186797C7C776B6DC8
:102E34007C858D94939A8A7F8F8B7A716876828150
:102E4400867C9584788E87808D75837B6C6F7E837A
:102E54007581716B827E6F7F72747D71828E7790C3
:102E64008983977F838079918886887176888C7925
:102E7400828C807A7562747A6B868181816C7D9193
:102E8400827C7B6E888C777589787385807A7F6D78
:102E94007D806879827389927B7C8E918A8D867914
:102EA400797583928B908984998579716A7E776F1D
:102EB4006A798189918087848475706E6C696E8368
:102EC4008C959B8589988380826F6E8683768C8EA1
:102ED4007D858D81897370816A758272848C837813
:102EE4008E846F7B776F706B778A8E988C7D8D85DF
:102EF40073757C7D76708186868797819092867EB5
:102F0400756B6C7E7B8C8284947A7F886B777D660C
:102F14007085727388767D84817E8168737F657025
:102F24008174838D8576898A768B7E757A7787918D
:102F34008D8E8B829889756E8286707F7E79818270
:102F4400967C8E8A78928173777D78878C93897248
:102F54007D85717874616C806C678176738A7D80FD
:102F64008D73898F7687947A818B76889382768B1A
:102F74007F727670818B838E7E8599877F7D858F26
:102F84007E87888B8594907E90867E7E64696F6050
:102F940070787C89706B846C7280696977847187BE
:102FA40088768E8B7B8A746F876F6B81717F89843F
:102FB40072888E7B8987727B7C758D8E928F8594C7
:102FC400917D756C7A7470887B898192897B907C01
:102FD400817B7378726F878B8E9983768775766B16
:102FE4006E726C806D877E75919184957E819378E5
:102FF4007C917C86937D818F89727D70647A7174F3
:1030040088898B88788A8E71667385716F807D88D4
:1030140081967A83967E7C77737C75739086869787
:103024007E81887082786779857469826B788882FA
:103034008C85708B886D8188798688768891817D6E
:10304400826A686B64777F7B7E74898179826E7B08
:1030540083777B888F8FA0958BA0998E8B828282B9
:103064007F90928395837D8D7879735F62707061B0
:10307400786D667D7B7587706D86746D8A817891B5
:103084007F7A9095867E78746F6C7A898E948B8221
:10309400948D736F6D696967748C8C8EA1938D9F09
:1030A4008F8A827A7572848E8F95977D848C6B74E7
:1030B400706278826F72827182846F827A617C7CA2
:1030C400626C82747F8C717B8F80757B6D73736F80
:1030D4008B948E95848998867D767E897575869382
:1030E40085998E7C908B888179766F72878C909687
:1030F400857B8B74777165736F6B78806B817C7360
:1031040080826980866E71868584958086918B7AAB
:103114007C6C6B64687E86929983829790767E90AD
:103124008B7B727C8D7B908D788989869484857A5B
:103134006D7D808087746F7A6E817368807A7288FF
:1031440079778E79748A7B7B8D776C7783778D889A
:103154007F84918B7F7A726F6D73828A8F9B949236
:1031640091838886807E7C817E767A79787B80855F
:10317400868A8279767F8490938D7A827D77755D55
:10318400676A616069616A736D797C787B81828C1E
:10319400878B979E88929E9D98939286797A86854E
:1031A4008B8B8B807E7E6B746D5E60605E6A757FD8
:1031B40082848B8A868C8B807B7A859097947F8E91
:1031C4008781846B6D7E6B70836F82867D8E89822E
:1031D4008D82817B746E7A867C88888B86858674E2
:1031E4006C6B697481898B858E8A7D8687807A7001
:1031F400777D7E7C81858F90908F877E807C757EA5
:103204007E8577788184806967796C6D77747C8337
:1032140082838E92918B827A807D81848386847F5F
:103224007877787377767B7B797F7B777774738015
:10323400786D797683867F989B979F9994989080F0
:103244007A716A757879666E726B756165776A777B
:103254008373898E8599958A948B8E7F7F7D8990DF
:1032640082898E9078707F71676D6A697C85897CAC
:10327400898B778787766F67728173879080908F49
:1032840082958E8182898A96989A838B8B84836BAC
:1032940073827273856F828F7C888F778681756A5B
:1032A4007970728068757E8473667A655E6B646417
:1032B400747A83807B8E7D7D8A747674738B818B24
:1032C4009A8C9D9A909E867C777B73828890817677
:1032D400877D8374667E7F6A7D82718B8E819791F0
:1032E4008088897E8088738C80758A8C836E797BD4
:1032F4006265646D767783887680857589817A784E
:103304006A80827D97958D968C9498867A79737964
:103314007C8C8874877F78866878846A76846B79F5
:103324008D747B8A79918A7574807D7F8F7786917D
:10333400937F73806F666478867C85918281906FB9
:10334400788C77706A6C85748193768B8885998E76
:103354007C74706C7A8089796F8272817B698183D5
:10336400738881758F8F82998E8397878281767413
:103374008A877C8B8F827F817767606A6C70828793
:1033840087808F8B7F91887873718074889D8A8CF5
:103394009E889295817F746A7983877F6F7F72702C
:1033A400725E687461727A6B878B7B9390869D8D55
:1033B4007C828C79948A758D939083826F69625F25
:1033C4006E757D8684757F806E7683716B68686D9B
:1033D4007A939E9196968FA08F8483827688908D1F
:1033E400707D7D6C7B626B7C666779667989778694
:1033F4009077898C7E7A89838E987C909A9B888436
:103404007E746C6F8884808F818285917F7A8D86AB
:10341400736F6D69788E8B81977F7E9483747F7BC5
:103424006C81888C747A7C787D5F707D676F806630
:1034340077876D8184808E798171877A8190778690
:103444008E928C81766A66636F697A87888F7881B9
:103454008479918B7776726E7B929989848F8C9A1A
:10346400818487757482878E767581847D646D7E90
:1034740067687C6C83927A9191829D857E7F857F3B
:1034840085977F88978C847F6F6F6E6D6C7C7D9140
:10349400968590927E8B8C776F687267778B818824
:1034A400927F8B8776797C73778E928F7B86878CDD
:1034B4007862746D5E7A6A67847B829281908C7F75
:1034C4007C7988798E8E7D9296927C847A647776E4
:1034D40065787A778670697A69817C6F7F71718487
:1034E4008F98878D917689816F6B757C74899280B2
:1034F4006F8579836B6982796A8179728E7D889709
:103504007E8B84897E81877E99888395998E7B843E
:103514006F6C7C79798A9097977B878374896F78AD
:103524007770726F8B9284968782968074737C65B1
:103534007588856C7C82898F7B6B817E6D867075C6
:103544008B838F8884947F796E767878856C7D8B75
:1035540092837A82727474626F78828E896D7880B5
:103564008B8877786E7372789391899D8F928C7E15
:103574007776816E808A8E7F808084785E67725FC2
:103584006473647D827D937F8C94817E737C758962
:1035940087798E949A7E80866B767D6C7E87898906
:1035A4008F8E7D868D7E7675697576869F968E9DC7
:1035B4009189847B7B866C778C937C748382866F01
:1035C4005F666A766B6264817E8A98889C92919029
:1035D4008A8C8195838C90908B71716E5F71686712
:1035E400666E7C826E687C8286727B7A6E84748D51
:1035F4009B8C89848C967E7B889076879291888533
:103604007C87795F656F656C68668288859E8E8C21
:103614009C8582817A6C8083788B8A927B737560B7
:1036240071796462747C878972788B8F7D7B7877FB
:10363400868293A19298A0988E80738279718789EB
:103644008F8680878A806D6B5F6E7362738B8A8AC4
:103654009A90918D77738171667E6E727E80897186
:103664006976607177606E7F6E868D778295998CAE
:103674007D7C727E7C7D918D98998B8E7A6D757E22
:10368400687B868D908A828F937C766E83876F7435
:103694008A878898979B917B728074667C6E6F8012
:1036A4007485766F7D667D846C778A7E918A71825B
:1036B400908776736E67787984937B8C877B8F721F
:1036C4006F866F6F848789797E828E7E7068798B2E
:1036D4007575938D899E96939A8173837F657E79A0
:1036E40067877B748D797575798C806A7A747A872B
:1036F4006B768B8E837E7280797286988D8E8C77B2
:10370400918E6F7685687A7F887F687A7F847173FB
:103714006B6E7F65697E838A91959E947F7785859C
:103724006D847E7F97878C9B8286747A8D73728971
:10373400717D8E6E78938B797677767B7F879A9876
:10374400999886917D69806E61777F868A6F758A84
:1037540088746A688579686E87867984808B836BC0
:10376400697C69657A67767E6D848979796C868BE4
:10377400758C8B7E9E978294A0908881827D7276D0
:103784008C8F96927B8B87686173675E6F757F6E93
:103794006B8081857770798E76788A8190989A99F2
:1037A4009D817A8C876D78796A85757F8E787C7037
:1037B4007E907C7E947F8A997B7F94927D817A71BE
:1037C4007A7580968D8B9B878C8C6F7E7B63747FE0
:1037D4007F7B71828689736B667D74606E8480845E
:1037E4008E8A918874737560627A6D778A75868F14
:1037F40081816F82886F6E87747B866E82938A81E3
:103804007C7C7B757C93989E9E8C82927C6B7E6A7A
:1038140063777B81726C70827B7374738C7871872D
:103824008C90998C8E997C7279866D808778948837
:103834008E9481886E7C89706B8275828C717C8F8A
:1038440090807E796F818584989A998C92927E6D0E
:10385400807061787A82757080827D6B71667E700B
:10386400607582818A8E929580746E736A6D847994
:10387400898F909A8F786D6C867E68778488938F11
:10388400788C8F817C73836F71838E9197907D8602
:10389400896D6D7D626F78808B6D7486777D6F5FC7
:1038A4006F7A64697E8386898F938B746F757D6D5F
:1038B4007B7C7F978E9F8E8F987C91957873857A89
:1038C4008388767B8A82746E6866797686938D990E
:1038D4008F9799817889707B7580886D7B858A8BB9
:1038E4006E64757E6671838D8B829A9C987F7777E0
:1038F400836B7E82788E8D93817C70657D836C7002
:103904007E7C888B7C798D85796E6E6E6E81869BCC
:103914008F94898B947F708277697B7D82686E78BF
:10392400747479716177675E6C78847F86979D89FA
:10393400797F967F7D947E8C928890767165758769
:103944007565767E848E7A6C858A76726F74787FDC
:10395400849E93979C8B99987F8A917C8988938184
:103964006B7B837C646E647778626C82877C8192E3
:1039740094907871807B6E867A808E8E947F7D7829
:103984006B857E656F8182888E7283918277737571
:103994006F787F889C918D88978D75727E676C7720
:1039A4007C836B6E807D7D77727B836B7E857B8A67
:1039B40086969B917F7881846E857C808E7A8B87B6
:1039C40077746A7D7866787B6E82877E83968A8038
:1039D4007A76768883909C9D9D8E89887671836F94
:1039E4007572757F69737B7974786A667964677DAB
:1039F4006D78878D999B897E82897589827E918F66
:103A040091968970687A7D6667736B7E8777768D09
:103A140086818D77737F808495868D9A8D988C743A
:103A24008379757E7F8F82788A898E8368738166B5
:103A340073826D857D879589796F83816D736F74CA
:103A44008986918D7F7E6D86836E6C6A70877A76A7
:103A54008492919991817E7B717A918491907B93E8
:103A6400817389737973657E6B69827777866973ED
:103A7400866D7B88758F808D9D8D7F7F8E847C7C09
:103A84007680928293947F6F6E857964686E6D7F81
:103A94007F697F82788471706975848F94859A9325
:103AA400928C6F81846B85817D8472878576857322
:103AB400728169697F717E867A92898F7A90927C0D
:103AC40090837F9888879D8579768E84768277899E
:103AD4008D8E7F868B7B87706B696B70718D7B8815
:103AE4009580938878887B747C6E81717283717DF4
:103AF400746981706A837B79918292948F838293B3
:103B04007884826F8589858D86706B7C7F67726F00
:103B1400657C827D7F90788088706F6C80768883E6
:103B24007A928B8D7A7382687B7A6A83717C8E80B9
:103B34007C88878A706F82686F8279908A8B848789
:103B44009271848473838D909A9278708184707555
:103B5400796B818A837E94858B95817C787A798D43
:103B64008E839A89958F7D917E72836E7E71667B3A
:103B7400777F81687C705D757E758D7D8A9C8D8371
:103B840080978484896F8783778E8B71656F817149
:103B9400667664708582758F897B8C7A6F6B757895
:103BA4007C958787968494847E8B6D7D756B8773F3
:103BB4007691807F927B867563787C76886F7F862A
:103BC4008186788B7078846C86897C938C7F7483EF
:103BD4008F787081808292837C937D8089747573E1
:103BE4006D728D8B8F9D879583778D7270827482B1
:103BF400707181757E81708386758172768C7D91FA
:103C0400968E817D9A8B838B71828E848D8C726764
:103C1400677C71656862798684748D89848E747218
:103C240074726A838F7F9088889A80838C758A7176
:103C340075846D7A8374827E6B817A6A82777680EA
:103C44006F82878C7E7B8D757E846E8C7E7B928268
:103C54007B70818E7B7D7F8F8C94818592787F763B
:103C64006C7A7373718E83919781988D8292817D22
:103C7400907D887E6F88797185656D7E656E7D72B5
:103C840085787F907D6F7086757489728296878E31
:103C94009A7F736F8680716E71818A8D798C897B2E
:103CA400927C706B77817D95838193899980828AD8
:103CB4006F7D7D728A727687757F7E617C6E5F7C94
:103CC4006F6B806F8290876E8586708F807D9B89F5
:103CD400859E89797B928C7C8171768A8B828E8D8C
:103CE4007B908472786E69738B7E859480948083D4
:103CF40092788688758B767887717E795C73695D36
:103D0400706A747E6B83898F797C8B73867C728FE7
:103D14008B7D99917E768A927D7C70788E8F778761
:103D24008776907B6D6767797783868A8A838A6DC5
:103D3400777E74876E829483929C8E958583856941
:103D4400727F677B7B748A837A77817468817477E6
:103D54008C8C979A82757A8F867A727187878D9305
:103D6400988683937C6E6569747684848E9295823A
:103D740077736E68777C788F7D908E8A847B897A5E
:103D84006470725D646E737F817A7E8B777C8A77D0
:103D94008897969797937C8B8E73767D6F728677D0
:103DA4007B8B7674807464667B73778D8A90909431
:103DB4007C79877E787F7C83887E98878F857D8FCA
:103DC40078697D6E687C6B79787E747C7F68798194
:103DD4006D8590969A82877D818D736871816C7FE1
:103DE400887F86828570837B738C7C869495999D6D
:103DF40089747B876E7D7F717C7B88928C907C91AB
:103E04008F717C7F677873767579806582766D8231
:103E1400787E9185999B887B8193756B7E8871846C
:103E2400888D8D7A81707369617A716C868B8F89C4
:103E3400957E7688837F7171786E828D838C757F91
:103E44008E706E826C747A7885727B796E747075FC
:103E540073759192949E899484839174646D7D7733
:103E6400687381887F7C767E737A8D7E8E989D9927
:103E7400938E737889737678647D7783898F8A7655
:103E840090886E827A6F857A877E7F8480937A7E2B
:103E94007D71869399A094857986886E666F826C0D
:103EA40072808984837F80846A6E7D6E7C7A8C863E
:103EB4007A857681927D818081827D8E8C908372D9
:103EC400837C60666F637563717385847B93837A87
:103ED4007C7B79908293918C847F947D6F6D7E77C7
:103EE4007684878D8485727377677E7B7E877E94E4
:103EF40086958B7B8F88758976718675847E8774A9
:103F04007789786C8070727B6A7F83897B7F8C74FD
:103F14007D88778B989CA09B8C84948E7A727E8B00
:103F2400817C888B8275786471656576687A7B7725
:103F34008A8B85707D79787876768770808983908E
:103F44007B7E8D73748273827E82837D8B7886837D
:103F54006F7E7A728B878C93828880938C7A758338
:103F6400777B8383897D7E75716F62737C7A847FAE
:103F7400958D908D7D86837386787A82748A838901
:103F84007A7186796A7C7170786D81757E7D878996
:103F9400777B847683918599908886888D797274ED
:103FA40080737D828989797B747B6B6D80767F8D4C
:103FB4008D919295807F897576807B857A808E85B8
:103FC4008E7D86907470826E6B756D78757C6F7D56
:103FD4007A6974756E85848B9184907E8D8D7879E1
:103FE40085888C82858E7C7F7A6F7968797B7A8CE0
:103FF400818B8B918977858173776C75757B8A86C4
:104004008E7F7E8E7F768678717C80868394878788
:1040140088797C8076858C938E7C857884806B69A6
:104024007974727D808482817E737D666E786C7A09
:10403400848C858484788B91817F857E7A828C843C
:1040440088878B8E78697B6E5F71768576797F8AB7
:10405400898D867C76848E958A828D767F897C6C28
:104064007B77687E7679848A7B747E6778826B72CC
:104074008487868C8B73838A747E8072857B7D7F34
:104084008D8C888B8B738283798C928F85867B78D9
:10409400808A727A898C95968476807873876E721A
:1040A400826A7A8C79718C876E7F816D7C8A747256
:1040B4008586898B816E857A677C7075897D798721
:1040C4009088737D706E8174878C8C828D937B7DD8
:1040D400886B6564747E888174807E768C7A72883D
:1040E400767B8E90818791737C786E817E6E7E84E0
:1040F400888383776A867C75837473857E7C9191CB
:10410400948D826E717B6F85897E7975877A878EAF
:104114007885828B9C9B827E95937E9582758F7920
:10412400809384898C95817E76717C8873838C8955
:10413400838B7B687C705E6F685E766D6C7F818D2F
:104144008477716A7D767F8B798980827A808B7897
:1041540073707F898F7D76777F7B86766C80696DBF
:1041640086857587958A837D7B8E977E8F978492CB
:10417400937F728178687E676B84747678828D8091
:10418400776D708773828E7D868984818785707E42
:10419400808593947D748A866C83856E8980739000
:1041A4008D798E97837F7A74758D808197948483BB
:1041B40083698179677E75657F8971788F897F7A54
:1041C400717286768895828E8D9279828C6E767CD9
:1041D4007A8A8F857376858084806C80776A8389F8
:1041E4007977908375716B6D7E72789183798F8600
:1041F4006C7A8061717560757A6E7E82898A867741
:104204006D7F787793878996969988948879737F58
:104214008C917D7484848284766573735D717B7FF5
:104224007F8788877D7484968980978F898D937C16
:104234007F86758D856F768573818A898680746A99
:104244007A766F897F85908C8C83917A717471836F
:104254008A7E69717E7C8982707F766379878179B1
:104264008E8D7F7E737082827992888C888C787729
:10427400826E7C7E677A7F6F7C83888B7C726978A0
:10428400806F888E89889595839483726E7B828AE9
:104294007D6A7C856F757A637777697C8789889472
:1042A400867B7E7980888277948F8194947B8789BA
:1042B400788C806D7D7F73808681747F76687E6E56
:1042C4007B877A88918A827E8F787484878D9283A3
:1042D400747584777A7C677A7F6A81837488918322
:1042E4007E797479848677918C79858F78818972C7
:1042F40080836F7281707383817A79776A77787833
:104304009287839897867C8C827573808C948C7644
:104314007988777C7C6A747C667581847D8A837CE9
:10432400777073877F7D9985909E9482878F7A8931
:104334008170837F6E767D817B777C646F7A6B7D01
:104344007C7F85878884827B757888849589788545
:104354008C6F7478647777657E84707A8E857F80BD
:104364007F7A8F91879F93899F99818592787984A9
:10437400696E7F6D748183807A7E65727265807EDA
:104384006E7A8785738B79706D7C8A948D7B7A8C39
:104394007A7C866A777C677C897A7F938B7882873C
:1043A40079878C7E9B9381979B838290727D896CA5
:1043B4007E857180838880747E636B75637A826B7B
:1043C40077838B79928B747D8D929C8D75818C70A3
:1043D400758167727C69808B758699887E7C737B16
:1043E4008E837E978878908D747D856B80836A7CBC
:1043F4008A787284877E707E656A74667D766C8640
:10440400846F6F827A6C7C868A978D73808C8277B6
:1044140083777C836F80948B819892859186888B37
:104424008E7B94957D8B96787D8D75818569717F62
:104434006C767B80806C7F726976658285857984F1
:1044440091778A947876818A92886C70836B6D7583
:104454005F7779677C898781967E778779798D7E86
:10446400889E908BA0957D8F8C798D796C857D69E4
:10447400768687737D7B69826F718381737C846E9A
:104484007280676D73737F90807889947A8589735D
:104494008B86728A908A8B927D78736A758A778309
:1044A4009686909B907B86826D88816B8280797FD3
:1044B4007A8A827E846F73667284777E878D847B2A
:1044C4008970696673838B7E738A8C728A82738B1C
:1044D40076748E907C8C938186867C848678868E96
:1044E40077879182798C767489786C7F7D75898CD5
:1044F4008683877B697A6E6D84866F718571748615
:10450400746E788289917E6E7F83697C7969827901
:10451400708C8D7886928885797889948485937E49
:104524007D9386727F8475857A70837B7985897C97
:10453400747D7A687F777B908473818F7D828C7C95
:104544008778828F91807483817183726E7F6C7699
:104554008A857F9090868779737D847C9495848EF8
:10456400988378857270846C77886F788386857673
:10457400806C68796574807A75898B72828B7579A1
:104584007570888E7B738685858D7676866A71854F
:104594007C7E9085869074799089728190818398CD
:1045A400807F9584879079727F7977787F77767D1D
:1045B400646B70667F7D76747E8774888C797C8D5D
:1045C400939E957F8A927880806B837E7082857AB1
:1045D400878B747D746B7C7C797C8F7F85958A75E1
:1045E400807E70877E758C81728286897F777E68F3
:1045F400777A72857F7D8790897E877D76758790AF
:104604009886798C85758A7B6B777266807B7288D5
:10461400887C7C71737C86737F9683899D877B8C71
:10462400807B806A6F887D7E8D8E878086706A7BB2
:10463400687C7D7B7D8C827793877D7F8E879C953C
:10464400818591768086697B755D75816A627B77E9
:1046540076756F7180817E9A8E849C957A81897437
:10466400867B6A75846E7A908E78858F7587817B58
:104674008F8F7B808E7A74716C666B7E87917F746A
:10468400898573847A71836B7085827D808A7E7854
:10469400767E82927B879B858E9E89848E7A8375B3
:1046A4006972816D7382878579836C73746C847984
:1046B4007E798380737D746F7D87919F8D7F928DCA
:1046C4007B8F7A7D7C6270817D73878B838879761A
:1046D4007F8F7B8B9A868B9B8F86947E80856C7272
:1046E4008381708089776C8175707F6C8285778710
:1046F40081807686746C6876818E886F808A7485F2
:104704007B72846D6A7F87787F8D7F857C717481ED
:104714007C6F8C8278908F818E7C80887372878284
:104724006E8692847984757E8272867C828B8A7E80
:10473400817C78716B73788E8A7D919881958A8457
:104744008D717886887C897F72826E7284786F8896
:104754008A71798D747C8872888673718584749269
:10476400907C86876F817C798B7A878A8777857C32
:10477400727572778D917D839682838B7185826940
:1047840072817E768780797B6B6A787A6A868A758D
:1047940089927A828B7283836D7F8C7E6F87887215
:1047A40078846D7471748E7F8597958591857676FE
:1047B400666C7E8678708C7C7688727B8D73788C40
:1047C400897E8E89808C736D817E6B888B788791CE
:1047D4007E8D8E7B888C73788C77798E85768785B1
:1047E40071877D7C8B7B778390818F847A727D88BF
:1047F4008A9279758C777B816C82746474857E72FD
:104804008A7E78826F7283776C8A887387908182BC
:10481400867E7B74696B827B718B8B7987897388C5
:104824007F798D7F848C8F7B8A7E707E7073848E7B
:10483400867A917E798B777C89707C8B80738A7B76
:10484400798271718178758E887B9191828F827063
:104854007876637683707E8F7F7D8A747985788A93
:1048640083878F93857E8C79777170798E81788F29
:104874008F83908B7D8B7B6A767A6B727E6C7A7D6C
:104884006A79877384947F8C9A848D9781807C79EC
:10489400718981728B8C747D856C7A786F80717D5F
:1048A400878977837C6F7C757287917F7A948980FE
:1048B40090747C836C7586806F817D6C7772667B67
:1048C400796E8783758A8B7C8F8579857970848DE1
:1048D4007A8F9C8E82947B8484748986807E8A7984
:1048E4007E83716C76727A8E8C7C8D8E7C8C8483C4
:1048F40082686B7B7B6B7A8374767F6A7B806B7C4C
:10490400887E859081858F79778475758C877F9271
:1049140096877F8772767E7988807D7F8C7D8A8476
:104924007875717689918883978A798A7E6F7B728C
:1049340067827B6F8885787670708374738B8B7BCA
:1049440089887984746B70796B817E748994877F8C
:10495400907F86827B8E8E8682907E878B74707722
:104964007B76858478888376857E78727770788480
:10497400788B8A81807E7B8C857B91978B8C9382CC
:10498400828176666E656677646E848576828580BC
:10499400807E92848C8A918781897370766F6F830D
:1049A4008476828A7572807773706D75837882914C
:1049B4007E81887588847488948683968D878D8794
:1049C4007B83757C89747A8C8E82807A777C768BF3
:1049D40085847F888A78816D656B7A6F7E887A8614
:1049E4008E7A7D817B7D787C86907E87927F7D79AF
:1049F40075818E7D8D9C8F819487828A7079736A8C
:104A04006D8479728A88777F7774817281878286D0
:104A1400878B778880696E776A7E87787F8D7A78CE
:104A2400857979736D7A837B768A8473726E6A7DF5
:104A340078768E837C8B8F84837B7677786B7F7B91
:104A44007289917F80877D8F8791999B90938C86C3
:104A5400947E706C786F7C88797A8F7F7584768188
:104A6400756F7E857F788A867573726C807F799482
:104A7400918698918690817B6F806E7783707D8C10
:104A84007C7B86757F7F78908286878F7F868D7BFF
:104A94007379707C8583788888767F787965677583
:104AA400787A738A88777D7B6C8384768B8E7D8815
:104AB4008F7B837E6F6E827773896F718D81768F22
:104AC4007D84857A918688878D8A77766F6A776DFB
:104AD40074898A7F8F8D757F857F6D7282758279E7
:104AE4008B88728583738A83768D90858B90808280
:104AF4007E7A6A7D6E7D7D6E828E887C776C7A7814
:104B0400858D848F858D7D878B7C71706E7F887891
:104B14007B918A788E8578778E83858D81968E7D3C
:104B2400796C6A7B707D877F8478828C74797462F7
:104B34007776837E73889492877A79857789888754
:104B4400897E907C7D856B69797172847D7C8B8490
:104B54007E898B796D81707C76748C7D8582748678
:104B64007A7E917E8F837A898D877F6F6563747C6B
:104B74006D7687847E87727A7B768A7D897F8A8F39
:104B840086948B7D7A747589907C889185818F88D1
:104B9400707277697B6D7483767F786D867D81947E
:104BA4008F99838A97948F907F7873887F707C8B9A
:104BB40084857A6C7B6F7E7F7782758A777E856D3C
:104BC4006D6D6C7A797D7A948C798E927B6C7E7A19
:104BD400737E74897E7A89707B786E887F86847808
:104BE4008D888E8D7C78796E8577728C91878A7E9C
:104BF400778474868386897D8D808B82726B6D7CCD
:104C04007D8A807E8F8D81878E74698070707E70BE
:104C14008783818672777B6C82807D84707F857EBA
:104C2400777E7264707E7278818F83887F7D867EC2
:104C3400958F98918A988D958C7972728579827EF8
:104C44007B8F847C8F8870758172747770847C7E8E
:104C54007E7373696E867A89837A909389908C7453
:104C640071707E6D72858D8B817B7A7B758D858D60
:104C7400878D8F7C8D8A756B6F787082737F8C7A49
:104C8400768C836F767E6D7F737F887B867578796B
:104C9400697E857D827989918E8A8574707389781D
:104CA4007A8E938C8E817D73778D818D897F8F8EA3
:104CB4008980766C71816F80817C8A827586856E2D
:104CC400687D6C73797184808B8474766D7A867C4C
:104CD4008F7F8294917B817A6F687D7F737E7A8ADD
:104CE400908279846E7E817E8C7D8C8F989A858269
:104CF400827B77808889848E7E9295817388736E97
:104D04006467757276676672637283798E8381993C
:104D1400888E8A96807C9184838D8A8E927B797525
:104D240064777D838381878A898A7A7771676E7CC9
:104D340081878C977F7D8F7B738A75686A78746EA0
:104D440080736E79676B7C7688787B928E868D9380
:104D5400807C8E7E898F838B93877973686C756F63
:104D64007C78878C8E7C7376737166747379868E87
:104D74008171888374868D8F848D7F8C8985868BE1
:104D8400767E9482879A87918F819588716E807ED2
:104D94006671787B8171676860677E87817F9B8796
:104DA4009395817D8B8283937D798B887B8D7B6AC0
:104DB4007C6C6774768282899083756E7E6F70884E
:104DC4008589948593988A8B857271777D6C727DC1
:104DD400867C6E70716A72857383848890879780ED
:104DE400887E757B6671767689817C8A8C76837100
:104DF4007284847684897B88777C747A7C898C7EBF
:104E0400928F77878D76716A6A80817085908078B9
:104E14008C817486868395807B928D807E747A7B68
:104E2400848098978381918F868F8E8A706E756740
:104E3400777C85766E6D687C84728C8A7E92917C98
:104E44008683687E7C6B72645F6D756D6D7A897A1A
:104E54008B998B7F7B85938B8B8A807A788C8286E7
:104E640087928F8D7D757F868B7D707F6A76747453
:104E740077657882737C6C8096927C859891888B18
:104E840085836F7D8978726B6475837A8894967F45
:104E940077838773767E7F827A91877C7D7F6E7439
:104EA4008877898E767678808B7A7F8475826C6D2C
:104EB4007D81868979776D7788918D7C90998C89AD
:104EC400807E75748D90827A7B8D918582778483C0
:104ED4006F6E77657465717B738887827C7A8E8642
:104EE400909E8B93947E7680878978716C687D74AC
:104EF40068768175868F776C77807080757C7D721B
:104F04007D71818E7B81927F7A737F928582919568
:104F1400957A7B84746D727D82838A86848A768393
:104F24007E7083797C8A7278838788797D6E7582B6
:104F3400797A838F87979A817B8D8882836C7D842D
:104F44007E7D7F816A6F8073756D6981877A8894AD
:104F5400948379766F696B7E878A88978B80837A4E
:104F64007D6F6D7D878D8F818D787786727A77746A
:104F7400777E8B84877E8E8B7C7075816E7B858635
:104F84008A8F927E736F6E746F6E7F7F85989D900B
:104F94008A978F767B7D65747A75807D8281778927
:104FA4007B817D7A8B81968F8693848B8F7E786CC0
:104FB4006B777B7F82827781715F5F6765687A74C4
:104FC4008089938F79828675887D8188788C909684
:104FD4008B8D947F756D7983766E7C858C8E8B81B9
:104FE4007B6C6F7A687580888D817F726D7E736A41
:104FF4007D78818F828D8E7A868981756D67647ADA
:10500400757D9088889B87828C7B71788C7C8A9351
:105014008394947D858571786C6983817992828C7F
:105024009683847F767B8F87869494998F7E786F1E
:10503400647180778088878883858C89796F695FBC
:105044006876808D857685898973706E636C7E72CF
:1050540086807C8F85858770717D6C717D6C7F8B7C
:105064008791957D878A787A887985908A8B9390C1
:105074008D87776C615E6B75687D816A7F8A7982C2
:10508400847974706A717A82948C8D907983827237
:10509400726F73868F94838F8F7F917F6E807A79FE
:1050A4008D737A908C8B967D8E8A7D76837F808CAF
:1050B40078878689846E7764606E757C727E867C60
:1050C40083807583897A80797C8F989E9F9C8D815B
:1050D400848E7775726B72838E8D727E8386836DF8
:1050E4007475657F72667981868C81808576767E1B
:1050F4008A73838A788F86868172867573877A69C4
:10510400796A7F716B7B6E7B7C727C6A697E879423
:10511400978F8D7E93927B898775848C8E8F758013
:10512400887E6A74697E766571797F8990889385B3
:1051340070828C7871877277887D8A81706D768AA7
:1051440086727D8A88978A788B948875877E6F802B
:105154007D85999093968E98827B8E757C807284DF
:1051640072728283888277758568718370767B8199
:105174008D7E72687282687480758A838093867665
:10518400707D8672626E787C857C7788827E8B796E
:1051940072787C7A8C8B959A9495847B8D756F79D3
:1051A4007A7F6F7282828C786E8778697E7274825D
:1051B40079919293897C8D867A8F78838F788D8B81
:1051C400756D79887E7378677E866E7386888E9314
:1051D40084736F776C7881798D77878C7488897202
:1051E4008C8580887B848B8E84837B877A677E6EB4
:1051F4007E7E75868F88767E7C786F79717F958ABE
:10520400988686847D9079657269727863717A83F1
:105214007E807A747A79728C9584979894A0868A21
:1052240091788478847F67797D817F706A6E7563F5
:1052340067667B757D92999E8C828A8F788D867540
:105244008C8C929281756C7C826E718471828D7566
:10525400808E928A7F84756E67727B758C7D708B6D
:10526400796B7F7667787E86727B898B917F7B8072
:105274008A766E708385778C969D958581828377F7
:105284008E827E9385907E80866C837F6A6D7D6737
:105294007B746F8487918A7977726D6E848D979809
:1052A400838F8B726D7B75677C7F7E7D807F837F30
:1052B4006A70616C7662677F86839A9C9A9B8B8402
:1052C4008382758C827F958C9387837365757D65E6
:1052D4006F7B718982768A938D75807F6F7C7B89E1
:1052E400999899927F8B84758C79728A8D79737B66
:1052F40075837E695F677361616B7B808E8E82923A
:1053040080737D7B6D747E818D93949D8B81778179
:1053140093847487837E897683878A7C726E6969B5
:1053240065788B969B888A92836D7588716D83826C
:10533400748081848773655E6A7564717D778D93EB
:1053440099A0998680808475867C82919398887CC4
:1053540073687A836D7787838F8E747A878774797D
:105364007362747078858B9195848B7E7385707865
:10537400898B92848290837F6C646F7B67707E7E5E
:10538400868B9092917F6F7071606A7B6F88898B36
:105394009C8D8476869580767D8689928680918997
:1053A400746E686D6D7677868A918D757978647878
:1053B40073677778867D6F8387887A716F80706E64
:1053C4008379868F8A9B9C877B7E8F78828777916F
:1053D4008D83988A79708088727B8774888E8279AD
:1053E4008E8F80727372717A7A938C93937D917F8E
:1053F400738A716A7F83866F6A7979857C65728323
:10540400716C847E7F84819798857B918C727D8773
:10541400788C85818E756D687F836D6977828587C9
:10542400807A887D797868656E717690868E9C8A9C
:10543400998A7B8E787C856F816F6A7C7A82846B93
:10544400728065647D757B7E8C91827F738587779E
:1054540092838A9989978E7E707B8B846E82787A08
:105464008D74768D9285877F7677877B8E938497EC
:105474008D8A8B6E7B7D6E7962737B667C8187926D
:1054840083728A7E6E8372788A7383938675799227
:10549400847C7A71898C7C918482757185776C7D2A
:1054A400637386736B82889194847D7D7675918F06
:1054B400859E8D84947982886D787A7D735F6C7112
:1054C400707A68607C7165807F7E947C909D8B7C13
:1054D4008897807B877487857C8F7F756D808574C2
:1054E4006A74768D836E88958F8C9380827B7481A9
:1054F40092898E957C8D816C8274637B7478776ECF
:105504008383878B73778B7371887786808598877D
:1055140080768A8A7489797190887993876F6E828C
:10552400867369726F7D88747E8A8C918C7B777A9E
:1055340075789387949B899A917E8986746F707C21
:105544006C5D7271777C66667A6A607469757D6D6C
:105554008C94817991957D8989829C8E8A9F8973A7
:10556400798C8874736E738C837089938B92897B26
:1055740078716D828E7C8F8B899070827E65797054
:10558400717C63797C7E8A73758A7869837A7A867A
:1055940079918F8677898B748C7E71908C80978EAD
:1055A400786E828A7075706B838D787D8E8E968C02
:1055B40073736D6A6A858A7E998892947F948072E7
:1055C4007E77837A6C847B78816578715E71746C84
:1055D400867A808A8F87838E7283837086948E9A6C
:1055E400987A788D8A7880706E848777878B768CAA
:1055F40089746C6B7C6E818D839983898C7E8B72AC
:105604007F866F7E73788581836F7E81646578661B
:10561400747C728792877086857087827A95817F81
:10562400948177748A8C787676798685828D867E65
:1056340088766C666D82748D948A9C979F898C960B
:105644007D8785727F79788276786477735D696EF9
:105654005F6F757882898C6F7A816E83747690829D
:10566400889F8D8080948F7B77857A7F8A788E84DB
:1056740085887C73697886748692969190937882F3
:10568400866B817E6F7D7C8D8D94877B907B6A8019
:105694006D6679707D767E7972866A757E677C85A3
:1056A40089988A786C7A8B7A6E8085878A878A90C3
:1056B4007D7C7A6C6467807B8091869C9B9B9181C6
:1056C4009380717F707B6D6D7F71776C76806B6278
:1056D4007B6E6F82878E869179808E748583738CBE
:1056E4009389909A84768B856F77786C8586738698
:1056F400867F8E7F6D687E80708E8D819089977D88
:105704007F8B7676827F8D75828F7A8878718468B4
:1057140068816D738673848D8F758285677D7D6DD9
:10572400858C828B87786E838871798573878F7F68
:105734008294797E856C6B6D80778D947D948A9448
:105744008F7E927C7F87698081748E7F7C8F817B42
:105754007D64747B667D7A758678847C86746B7EC2
:105764006A7482858B8D7F6D6C81756574737389A2
:10577400847D938E7D8E7C7B7F7471859585959ACF
:10578400939C86878C747A7677856F8587778C7EF1
:105794007B866B787D6883807C9394877E7C787528
:1057A40085797A908B8898837070817A666E766A30
:1057B4007B806F7B8A788884757A7C7C81979B95C3
:1057C4009F90918B7A8976817469817470817A81D2
:1057D4007C637A77637A796A867A8394917B818B06
:1057E400787C7F6E848E818E8F7B6F7787707473E5
:1057F400647B8478798C738085706E6C817B848DF6
:105804008C9C969C87798B8173897988837F948516
:105814008A8A748A7A687B756E857C8082818572B7
:1058240082767D8671858E8F95957F707B8A767260
:105834006E6A7F8C807B95838B826F6B667A7074C3
:105844008D7D84878D876E82757270687A7F799377
:10585400908F8F7F878D73848573897B7F8A877B05
:10586400798267717F6E858C758F8B79747E928354
:10587400797273848C8973877C7E8B726A63737587
:105884006C878A928E8C977A848F76867D76877AD7
:105894008E8680837D8D81687873647C6D717C7B5A
:1058A4007D708A7E7388787C93837E958D758593CD
:1058B400827485807089878495848D88786F6A80E6
:1058C400807C90798891978B76837965726F7275F5
:1058D400718A797C7D7788836C7677697F707C8424
:1058E4008B857A8F7F7786707C8E8895917C75897D
:1058F400927F78817584888A8D8D79887E6C6B61BE
:105904007771798A91978E9A8E7B9183758A7A8240
:1059140085829381897F73866E657C71647A6F79E1
:1059240078847772846C7477657C838890917872BC
:1059340089887A76768280868E949284947C7D6C33
:10594400737A667B84848B8E8E7B71806E667767B8
:1059540077737B8F8392868D977E8391757C857711
:105964008680897A7B85677872637E75788F81708B
:10597400738B8B7679817F94837893887A948379F7
:1059840074788A7D91928E9793957C7F8D778182AE
:105994007687778A8A7F8E7882876C787F697A7A2D
:1059A400707E73827282756B7C6C75867D858C7A51
:1059B4006F778B79787C7284918984968389907AC5
:1059C400716975776A7F858D8B8F8F7680846B790B
:1059D4007A708072858C81857D88866C747F6A7A02
:1059E4007975847880717F7F6F8377758E868599CA
:1059F4008E7D788A84737E7E7B8A888D9180837F76
:105A04006E6A64747D7C93888D999B907D8D7C6C8B
:105A14007F737B81748F8384817990816D817870A9
:105A240084727D868D817B8B757185767F90839B57
:105A340094857C869684768081808A767B85747949
:105A44007468625E6E73748B8488979481798576AA
:105A54006A807A7E84799184858570877A65787086
:105A64006176717A8883726F857C737F707A918E88
:105A74009794827682907C727B7A7884868D8B73FD
:105A8400727E7267687D7982928C95899B8A818DFA
:105A9400797F86717C75818A7D8D78778A70718330
:105AA4006E7A8589877E8D798B806F7F7D6E8891F4
:105AB400989682877D92866E788788767E858678AA
:105AC4007E7E707C6B737F71868A8E9397927B81C6
